:100000000C9462000C9428030C9401030C948A0055
:100010000C948A000C948A000C948A000C948A0038
:100020000C948A000C948A000C948A000C948A0028
:100030000C948A000C948A000C948A000C948A0018
:100040000C94B7020C948A000C9475030C944F0323
:100050000C948A000C948A000C948A000C948A00F8
:100060000C948A000C948A000000000024002700F1
:100070002A0000000000250028002B0000000000DE
:1000800023002600290004040404040404040202DA
:100090000202020203030303030301020408102007
:1000A0004080010204081020010204081020000012
:1000B0000008000201000003040700000000000027
:1000C00000001D0511241FBECFEFD8E0DEBFCDBF5D
:1000D00011E0A0E0B1E0EEEBFBE002C005900D9274
:1000E000AE35B107D9F722E0AEE5B1E001C01D920F
:1000F000A231B207E1F710E0C2E6D0E004C02197D8
:10010000FE010E94D205C136D107C9F70E94A7039C
:100110000C94DD050C940000833081F028F48130CC
:1001200099F08230A1F008958730A9F08830B9F0B5
:100130008430D1F4809180008F7D03C08091800055
:100140008F7780938000089584B58F7702C084B53F
:100150008F7D84BD08958091B0008F7703C080911A
:10016000B0008F7D8093B0000895CF93DF93282F48
:1001700030E0F901E255FF4F8491F901E656FF4F57
:10018000D491F901EA57FF4FC491CC2391F081112A
:100190000E948C00EC2FF0E0EE0FFF1FE458FF4FA1
:1001A000A591B491EC91ED2381E090E021F480E001
:1001B00002C080E090E0DF91CF9108951F93CF932C
:1001C000DF93282F30E0F901E255FF4F8491F901C8
:1001D000E656FF4FD491F901EA57FF4FC491CC2363
:1001E000C9F0162F81110E948C00EC2FF0E0EE0F69
:1001F000FF1FEE58FF4FA591B4918FB7F8941111DE
:1002000005C09C91ED2FE095E92302C0EC91ED2B08
:10021000EC938FBFDF91CF911F910895CF93DF9320
:1002200090E0FC01E656FF4F2491FC01EA57FF4F96
:100230008491882361F190E0880F991FFC01E859AF
:10024000FF4FC591D491FC01EE58FF4FA591B49199
:10025000611109C09FB7F894888120958223888313
:10026000EC912E230BC0623061F49FB7F894388173
:10027000822F809583238883EC912E2B2C939FBF14
:1002800006C08FB7F894E8812E2B28838FBFDF91AB
:10029000CF9108950895CF92DF92EF92FF920F933E
:1002A0001F93CF93DF936C017A018B01C0E0D0E004
:1002B000CE15DF0589F0D8016D918D01D601ED9144
:1002C000FC910190F081E02DC6010995892B11F474
:1002D0007E0102C02196ECCFC701DF91CF911F9123
:1002E0000F91FF90EF90DF90CF900895089580E0F8
:1002F00090E00895FC01538D448D252F30E0842F2C
:1003000090E0821B930B541710F0CF96089501973D
:100310000895FC01918D828D981761F0828DDF0127
:10032000A80FB11D5D968C91928D9F5F9F73928FE8
:1003300090E008958FEF9FEF0895FC01918D828DDD
:10034000981731F0828DE80FF11D858D90E00895AA
:100350008FEF9FEF0895FC01918D228D892F90E002
:10036000805C9F4F821B91098F739927089585E7C1
:1003700091E00E94AB0121E0892B09F420E0822F5B
:100380000895FC01848DDF01A80FB11DA35ABF4F52
:100390002C91848D90E001968F739927848FA68984
:1003A000B7892C93A089B1898C9180648C93938DAB
:1003B000848D981306C00288F389E02D80818F7D9B
:1003C00080830895EF92FF920F931F93CF93DF9353
:1003D000EC0181E0888F9B8D8C8D981305C0E88996
:1003E000F989808185FD24C0F62E0B8D10E00F5F0A
:1003F0001F4F0F731127E02E8C8DE8120CC00FB623
:1004000007FCFACFE889F989808185FFF5CFCE0115
:100410000E94C101F1CF8B8DFE01E80FF11DE35A5F
:10042000FF4FF0820B8FEA89FB898081806207C0D1
:10043000EE89FF896083E889F989808180648083FF
:1004400081E090E0DF91CF911F910F91FF90EF90AD
:100450000895CF93DF93EC01888D8823C9F0EA8952
:10046000FB89808185FD05C0A889B9898C9186FDAD
:100470000FC00FB607FCF5CF808185FFF2CFA889AA
:10048000B9898C9185FFEDCFCE010E94C101E7CFE4
:10049000DF91CF91089580E090E0892B29F00E94B0
:1004A000B70181110C9400000895009769F0FC01D8
:1004B00001900020E9F73197AF01481B590BBC01AF
:1004C00085E791E00C944B0180E090E008958F92D5
:1004D0009F92AF92BF920F931F93CF93DF93CDB7AD
:1004E000DEB7A1970FB6F894DEBF0FBECDBF19A23D
:1004F000423008F44AE08E010F5D1F4F842E912C8C
:10050000A12CB12CA50194010E94B005E62FB901E0
:10051000CA0101501109EA3014F4E05D01C0E95C40
:10052000D801EC93232B242B252B61F7C8010E94C3
:100530005502A1960FB6F894DEBF0FBECDBFDF9176
:10054000CF911F910F91BF90AF909F908F90089582
:100550000E94D80580915E01826080935E0186E1F1
:1005600091E00E94550280E291E00C9455021F92A6
:100570000F920FB60F9211242F933F938F939F9357
:10058000AF93BF938091710190917201A09173011B
:10059000B09174013091700123E0230F2D3720F4C6
:1005A0000196A11DB11D05C026E8230F0296A11DCD
:1005B000B11D209370018093710190937201A093FB
:1005C0007301B093740180916C0190916D01A091C1
:1005D0006E01B0916F010196A11DB11D80936C0158
:1005E00090936D01A0936E01B0936F01BF91AF9195
:1005F0009F918F913F912F910F900FBE0F901F9061
:1006000018951F920F920FB60F9211242F933F93BC
:100610004F935F936F937F938F939F93AF93BF930A
:10062000EF93FF93E0910201F09103010995FF918F
:10063000EF91BF91AF919F918F917F916F915F915A
:100640004F913F912F910F900FBE0F901F901895D3
:100650001F920F920FB60F9211242F933F934F9337
:100660005F936F937F938F939F93AF93BF93EF931A
:10067000FF93E0910001F09101010995FF91EF9145
:10068000BF91AF919F918F917F916F915F914F91AA
:100690003F912F910F900FBE0F901F9018951F92B2
:1006A0000F920FB60F9211242F933F934F935F93A6
:1006B0006F937F938F939F93AF93BF93EF93FF932A
:1006C00085E791E00E94C101FF91EF91BF91AF9149
:1006D0009F918F917F916F915F914F913F912F915A
:1006E0000F900FBE0F901F9018951F920F920FB68C
:1006F0000F9211242F938F939F93EF93FF93E09189
:100700008501F09186018081E0918B01F0918C014F
:1007100082FD12C0908180918E018F5F8F73209136
:100720008F01821751F0E0918E01F0E0EB58FE4FFF
:10073000958F80938E0101C08081FF91EF919F91F1
:100740008F912F910F900FBE0F901F901895789456
:1007500084B5826084BD84B5816084BD85B58260C6
:1007600085BD85B5816085BD80916E008160809377
:100770006E001092810080918100826080938100E0
:1007800080918100816080938100809180008160F0
:10079000809380008091B10084608093B10080914B
:1007A000B00081608093B00080917A008460809373
:1007B0007A0080917A00826080937A0080917A003A
:1007C000816080937A0080917A00806880937A00BB
:1007D0001092C10061E08DE00E94DE0061E089E0DE
:1007E0000E940E0161E08AE00E940E0161E085E056
:1007F0000E940E0161E08DE00E940E0162E082E045
:100800000E940E0162E084E00E940E0162E086E038
:100810000E940E0162E087E00E940E0162E088E023
:100820000E940E0162E083E00E940E01E0918501CA
:10083000F091860182E08083E0918101F091820154
:100840001082E0918301F091840187E68083109209
:100850008D01E0918901F0918A0186E08083E09129
:100860008701F0918801808180618083E091870118
:10087000F0918801808188608083E0918701F09108
:100880008801808180688083E0918701F0918801F0
:1008900080818F7D808361E085E00E94DE008AEAAE
:1008A00092E0909303018093020180916900837F1D
:1008B000886080936900E99A83E291E00E94550282
:1008C00060915F017091600180916101909162017E
:1008D0004AE00E94670285E391E00E945502609120
:1008E0006701709168018091690190916A014AE005
:1008F0000E94670289E491E00E94550260916301C1
:100900007091640180916501909166014AE00E94B6
:10091000670282E00E94B500892B09F482C084E05E
:100920000E94B500892B09F47CC086E00E94B500C6
:10093000892B09F476C087E00E94B500892B09F461
:1009400070C088E00E94B500892B09F46AC08091CC
:100950005E0181FF09C061E085E00E94DE008091B8
:100960005E018D7F80935E012FB7F89480917101B5
:1009700090917201A0917301B09174012FBF803BDF
:100980009F4FA105B10520F060E08DE00E94DE00E0
:100990002FB7F8948091710190917201A091730129
:1009A000B09174012FBF40915F015091600160913F
:1009B00061017091620100915F01109160012091CD
:1009C000610130916201800F911FA21FB31F841B30
:1009D000950BA60BB70B80935F0190936001A093DA
:1009E0006101B093620180915E0181FF17C0609147
:1009F0006701709168018091690190916A010E947C
:100A00004A0520E030E048E453E40E9487051816C8
:100A10002CF480915E01846080935E010E944B0201
:100A20004BCF80915E0181FD9FCF60E085E00E9409
:100A3000DE0080915E01826095CFE5E7F1E01382F0
:100A4000128288EE93E0A0E0B0E084839583A683D1
:100A5000B78388E091E09183808385EC90E095876F
:100A6000848784EC90E09787868780EC90E0918B78
:100A7000808B81EC90E0938B828B82EC90E0958B65
:100A8000848B86EC90E0978B868B118E128E138E62
:100A9000148E0895E89409C097FB3EF490958095D4
:100AA000709561957F4F8F4F9F4F9923A9F0F92F34
:100AB00096E9BB279395F695879577956795B795B2
:100AC000F111F8CFFAF4BB0F11F460FF1BC06F5F98
:100AD0007F4F8F4F9F4F16C0882311F096E911C0AA
:100AE000772321F09EE8872F762F05C0662371F0CB
:100AF00096E8862F70E060E02AF09A95660F771FDF
:100B0000881FDAF7880F9695879597F908950E94C0
:100B10008C0508F48FEF0895990F0008550FAA0B64
:100B2000E0E8FEEF16161706E807F907C0F0121600
:100B30001306E407F50798F0621B730B840B950B03
:100B400039F40A2661F0232B242B252B21F4089558
:100B50000A2609F4A140A6958FEF811D811D0895F5
:100B6000A1E21A2EAA1BBB1BFD010DC0AA1FBB1FB1
:100B7000EE1FFF1FA217B307E407F50720F0A21B23
:100B8000B30BE40BF50B661F771F881F991F1A9490
:100B900069F760957095809590959B01AC01BD01BA
:100BA000CF010895EE0FFF1F0590F491E02D0994F9
:0E0BB00081E090E0F8940C94DD05F894FFCFFE
:100BBE004A014A0100000000E2014B017A012902BC
:100BCE00AB0189019D0152494E6752494E472000A3
:100BDE000D0A000A54696D6572204C6175667A655E
:100BEE0069743A20000A54696D657220456E7470FE
:100BFE0072656C6C65723A20000A54696D657220DC
:0E0C0E004C657563687464617565723A200008
:00000001FF
