:100000000C94E2000C948C050C9465050C943E0550
:100010000C9417050C940A010C940A010C94F0043A
:100020000C940A010C940A010C94B3050C94250657
:100030000C940A010C940A010C940A010C940A0114
:100040000C940A010C940A010C940A010C940A0104
:100050000C940A010C940A010C940A010C94A60455
:100060000C940A010C940A010C940A010C940A01E4
:100070000C940A010C940A010C940A010C940A01D4
:100080000C940A010C940A010C940A010C940A01C4
:100090000C940A010C940A010C940A010C940A01B4
:1000A0000C940A010C940A010C940A017301760164
:1000B000650169016F019701970197017A017E013E
:1000C000820188018C0197019201080B0002020253
:1000D00001000904000001020200000524001001D3
:1000E0000524010101042402060524060001070578
:1000F000810310004009040100020A000000070506
:1001000002024000000705830240000004030904C6
:1001100012010002EF02014041234180000101026F
:10012000030141726475696E6F204C4C430041724B
:100130006475696E6F2059756E0000000000240020
:1001400027002A002D0030000000000025002800B4
:100150002B002E00310000000000230026002900A3
:100160002C002F000404040404030405020202020C
:100170000403020202020606060606060404020240
:100180000204040408020110408040102040804016
:1001900080080204018040201002011080102040DD
:1001A00040200000000200090F0000030401000CC1
:1001B000000000000000000000000000000000003F
:1001C0000000F70911241FBECFEFDAE0DEBFCDBF7C
:1001D00011E0A0E0B1E0E6E7F4E102C005900D9285
:1001E000AC34B107D9F721E0ACE4B1E001C01D9215
:1001F000A93CB207E1F710E0C2EED0E004C02197BD
:10020000FE010E942E0AC13ED107C9F70E9455087F
:100210000C94390A0C940000FC0180917801811142
:1002200003C08FEF9FEF08959FB7F89482E080930B
:10023000E9002091F20030E01216130614F421E0D8
:1002400030E02115310559F0289884E68093770134
:100250008091F10080838091F200882319F09FBF84
:10026000C90108958BE68093E800F9CF2FB7F89481
:1002700083E08093E9009091E800892F807295FFD8
:1002800004C09091F20080E4891B2FBF08958091F3
:100290006F0181110DC082E080936B0184E0809337
:1002A0006C0110926E0110926D0181E080936F01DC
:1002B0008BE691E0089590E0FC013197EF30F10575
:1002C000B0F5EA5AFF4F0C942E0A809180008F7788
:1002D00003C0809180008F7D80938000089580917D
:1002E0008000877FF9CF84B58F7702C084B58F7D7A
:1002F00084BD0895809190008F7707C08091900011
:100300008F7D03C080919000877F80939000089537
:100310008091C0008F7703C08091C0008F7D809353
:10032000C00008958091C200877F8093C200089525
:10033000CF93DF93282F30E0F901EE55FE4F8491E3
:10034000F901ED57FE4FD491F901EC59FE4FC491DC
:10035000CC2391F081110E945B01EC2FF0E0EE0FB5
:10036000FF1FEA5AFE4FA591B491EC91ED2381E075
:1003700090E021F480E002C080E090E0DF91CF9136
:1003800008951F93CF93DF93282F30E0F901EE55A6
:10039000FE4F8491F901ED57FE4FD491F901EC59CC
:1003A000FE4FC491CC23C9F0162F81110E945B012E
:1003B000EC2FF0E0EE0FFF1FE85BFE4FA591B4912C
:1003C0008FB7F894111105C09C91ED2FE095E923AA
:1003D00002C0EC91ED2BEC938FBFDF91CF911F9179
:1003E0000895CF93DF9390E0FC01ED57FE4F2491E9
:1003F000FC01EC59FE4F8491882361F190E0880F55
:10040000991FFC01E65CFE4FC591D491FC01E85BAD
:10041000FE4FA591B491611109C09FB7F8948881EE
:10042000209582238883EC912E230BC0623061F4E7
:100430009FB7F8943881822F809583238883EC912D
:100440002E2B2C939FBF06C08FB7F894E8812E2BDC
:1004500028838FBFDF91CF9108953FB7F8948091A3
:10046000670190916801A0916901B0916A0126B578
:10047000A89B05C02F3F19F00196A11DB11D3FBFDC
:10048000BA2FA92F982F8827820F911DA11DB11D6A
:10049000BC01CD0142E0660F771F881F991F4A9566
:1004A000D1F70895CF92DF92EF92FF920E942D0232
:1004B0006B017C010E942D02DC01CB018C199D098E
:1004C000AE09BF09883E9340A105B10598F3FF909E
:1004D000EF90DF90CF900895089540915C01509186
:1004E0005D0120915A0130915B0142175307B4F42A
:1004F0009091E8009570E1F39091E80092FD19C0A9
:100500008093F10080915C0190915D0101968F7361
:100510009927892B19F48EEF8093E80080915C0174
:1005200090915D01019690935D0180935C0181E063
:10053000089580E00895CF92DF92EF92FF920F939B
:100540001F93CF93DF931F92CDB7DEB7182F062FDF
:10055000E42E862F880F8E5F99830E946D0283E0C0
:100560000E946D02F12EC12E9981D92E8C2D8F19EA
:10057000801798F4F601E7FE02C0849101C08081E3
:100580000E946D02182F80E00E946D028123FFEF10
:10059000CF1ADF0A8111EACF01C081E00F90DF910D
:1005A000CF911F910F91FF90EF90DF90CF90089522
:1005B000DF92EF92FF920F931F93CF93DF93D82E8A
:1005C0008A017B01E40EF51EEB01CE15DF0571F00B
:1005D000D7FE03C0FE01849101C088810E946D0294
:1005E00021968111F2CF8FEF9FEF01C0C801DF91FB
:1005F000CF911F910F91FF90EF90DF9008950F938F
:100600001F93CF93DF931F92CDB7DEB782E089832C
:1006100042E450E06AEC70E080E80E94D8020E9458
:100620004701DC0112960D911C91139701151105DC
:1006300069F0D801ED91FC910280F381E02DBE01BB
:100640006F5F7F4FC801099597FF07C089810F90A1
:10065000DF91CF911F910F910895F80100851185C9
:10066000E5CF615030F02091F100FC01208301962C
:10067000F8CF289884E6809377010895CF92DF928F
:10068000EF92FF920F931F93CF93DF936C017A0148
:100690008B01C0E0D0E0CE15DF0589F0D8016D9167
:1006A0008D01D601ED91FC910190F081E02DC60104
:1006B0000995892B11F47E0102C02196ECCFC70168
:1006C000DF91CF911F910F91FF90EF90DF90CF902E
:1006D00008958F929F92AF92BF92CF92DF92EF9246
:1006E000FF920F931F93CF93DF936C015B017A010D
:1006F00080910B01882309F456C0809178018823EA
:1007000009F451C08091600180FF05C08091E00034
:1007100082608093E000E70110E00AEF83E0882E1A
:100720009AE3992E2097B1F10E943601811105C0FC
:100730000150C9F10E945202F5CF282F30E0C217B4
:10074000D3070CF48C2F4FB7F8948092E900909166
:10075000E80095FF1DC0282F30E0C21BD30BF50128
:10076000982F915020F081918093F100FACFA20E42
:10077000B31E112319F09092E80009C08091E8009F
:1007800085FD06C09092E80011E0209709F010E086
:100790004FBFC8CF1111C8CF5D9884E68093610127
:1007A0001E141F0444F081E090E0F60193838283DD
:1007B00080E090E001C0C701DF91CF911F910F91C0
:1007C000FF90EF90DF90CF90BF90AF909F908F9071
:1007D0000895CF93DF931F92CDB7DEB76983DC0115
:1007E000ED91FC910280F381E02D41E050E0BE01EB
:1007F0006F5F7F4F09950F90DF91CF91089583E050
:100800008093E9008091F200882319F08AE38093B5
:10081000E80008950E94360190E00895CF93DF9399
:100820001F92CDB7DEB7FC018485958597FD05C085
:100830002FEF3FEF358724870BC0CE0101960E9432
:100840000C01019719F4898190E002C08FEF9FEFAE
:100850000F90DF91CF9108950F931F93CF93DF9364
:100860001F92CDB7DEB78C01FC018485958597FF7B
:100870000EC0CE0101960E940C01019719F4298146
:1008800030E002C02FEF3FEFF80135872487F801F1
:10089000848595850F90DF91CF911F910F910895D9
:1008A000FC018485958597FD0BC09FB7F89482E085
:1008B0008093E9008091F2009FBF90E00196089537
:1008C0009FB7F89482E08093E9008091F2009FBF87
:1008D00090E00895089580E090E00895BC010097AD
:1008E00091F0FC0101900020E9F73197AF01481B1E
:1008F000590BE0917901F0917A010280F381E02DAA
:1009000089E791E0099480E090E00895CF93DF9328
:100910000E946E04EC018FE291E00E946E048C0F45
:100920009D1FDF91CF9108950E94340A8091590153
:10093000806180935901EB988CE692E090931301CB
:100940008093120182E391E00C9486041F920F922F
:100950000FB60F9211242F933F938F939F93AF93D2
:10096000BF938091630190916401A0916501B09162
:1009700066013091620123E0230F2D3720F40196A8
:10098000A11DB11D05C026E8230F0296A11DB11DB2
:10099000209362018093630190936401A0936501A9
:1009A000B09366018091670190916801A0916901FF
:1009B000B0916A010196A11DB11D809367019093CA
:1009C0006801A0936901B0936A01BF91AF919F91B3
:1009D0008F913F912F910F900FBE0F901F90189500
:1009E0001F920F920FB60F9211242F933F934F93A4
:1009F0005F936F937F938F939F93AF93BF93EF9387
:100A0000FF93E0911401F09115010995FF91EF9189
:100A1000BF91AF919F918F917F916F915F914F9116
:100A20003F912F910F900FBE0F901F9018951F921E
:100A30000F920FB60F9211242F933F934F935F9312
:100A40006F937F938F939F93AF93BF93EF93FF9396
:100A5000E0911201F09113010995FF91EF91BF917F
:100A6000AF919F918F917F916F915F914F913F9146
:100A70002F910F900FBE0F901F9018951F920F92FD
:100A80000FB60F9211242F933F934F935F936F9361
:100A90007F938F939F93AF93BF93EF93FF93E091D7
:100AA0001001F09111010995FF91EF91BF91AF9164
:100AB0009F918F917F916F915F914F913F912F9176
:100AC0000F900FBE0F901F9018951F920F920FB6A8
:100AD0000F9211242F933F934F935F936F937F93C4
:100AE0008F939F93AF93BF93EF93FF93E0910E018A
:100AF000F0910F010995FF91EF91BF91AF919F91F7
:100B00008F917F916F915F914F913F912F910F90B6
:100B10000FBE0F901F9018951F920F920FB60F9255
:100B200011242F933F934F935F936F937F938F93F2
:100B30009F93AF93BF93EF93FF93E0910C01F091DC
:100B40000D010995FF91EF91BF91AF919F918F9109
:100B50007F916F915F914F913F912F910F900FBEB9
:100B60000F901F9018951F920F920FB60F9211249D
:100B70008F939F938091E1009091E100937F9093F8
:100B8000E10083FF0FC01092E90091E09093EB0029
:100B90001092EC0092E39093ED001092780198E0AF
:100BA0009093F00082FF20C093E09093E900909131
:100BB000F200992319F09AE39093E8009091610173
:100BC000992339F09091610191509093610199239B
:100BD00089F190917701992339F0909177019150A3
:100BE00090937701992341F184FF10C08091E20036
:100BF0008E7E81608093E2008091E1008F7E809301
:100C0000E100809160018E7E806111C080FF16C07E
:100C10008091E2008E7E80618093E2008091E1000D
:100C20008E7E8093E100809160018E7E8160809352
:100C3000600104C05D9ACDCF289AD6CF9F918F9145
:100C40000F900FBE0F901F9018951F920F920FB626
:100C50000F921124CF92DF92EF92FF920F931F9386
:100C60002F933F934F935F936F937F938F939F93B4
:100C7000AF93BF93EF93FF93CF93DF93CDB7DEB7DF
:100C80006C97DEBFCDBF1092E9008091E80083FF32
:100C9000EDC168E0CE0145960E94310382EF80935A
:100CA000E8008D8987FF05C09091E80090FFFCCF98
:100CB00003C09EEF9093E800982F907609F0C6C08D
:100CC0009E892F89188D91110CC0803829F480914C
:100CD0005F018093F10002C01092F1001092F100C8
:100CE00048C1422F50E0512B913051F4811141C144
:100CF0004130510509F03DC180915F018D7F0BC0EE
:100D0000933061F4811135C14130510509F031C191
:100D100080915F01826080935F012BC1953041F427
:100D20008091E80080FFFCCF20682093E30021C180
:100D3000963009F05FC0EB8CFC8C1092E9001092A9
:100D40005D0110925C01123091F510925B011092DE
:100D50005A010E94FF0299E0BE016F5F7F4FDB01E5
:100D6000E92F1D92EA95E9F799831A8391E09E8312
:100D700090EA98879AEF998720915C0130915D0104
:100D8000275F3F4F3C832B838D831092E9001092A5
:100D90005D0110925C01F0925B01E0925A0149E022
:100DA00050E080E00E94D8020E94FF02E2C0F09270
:100DB0005B01E0925A010E944701DC011296ED901E
:100DC000FC901397E114F10409F4C0C0D701ED9130
:100DD000FC910480F581E02DBE016B5E7F4FC70161
:100DE0000995009719F00CF0C4C0C7C0F701E08462
:100DF000F184E8CF973009F4C0C0983021F481E045
:100E00008093F100B6C0993009F0B3C0837009F047
:100E1000B4C0E9E2F1E081E021E036E3908199237A
:100E200061F08093E9002093EB0091919093EC00A6
:100E30003093ED008F5F873089F78EE78093EA006B
:100E40001092EA008F898093780193C08B8D9C8DDE
:100E50001092E90010925D0110925C0190935B0189
:100E600080935A01898D811156C08E899D89913A4E
:100E700059F4813209F081C047E050E064E071E04C
:100E800080E00E94D80275C0913209F076C08332AA
:100E900089F4888D90E0982F88272F89822BA0E0F5
:100EA000B0E08093000190930101A0930201B09300
:100EB00003015FC0803269F48091E80082FFFCCFBB
:100EC00067E084E091E00E9431038BEF8093E800BB
:100ED00006C0823209F04DC08F8980930B0180914A
:100EE0005E01882319F0EEEFFAE002C0E0E0F8E0DE
:100EF0008091040190910501A0910601B091070134
:100F0000803B9440A105B10509F07BC080910B01A5
:100F100080FF93C076C00E944701DC0112960D91BC
:100F20001C9113970115110541F1D801ED91FC9128
:100F30000190F081E02DBE016B5E7F4FC8010995E5
:100F4000811117C0F80100851185ECCF113009F42B
:100F50004EC0133091F48F89882309F445C0823044
:100F600081F440E86BE08EE291E00E949B028823CE
:100F700021F08EEF8093E80079C081E28093EB004E
:100F800075C0813029F440E86BE082E291E0EDCF5A
:100F9000833099F70E944701DC011296ED90FC9096
:100FA00013978E010F5F1F4F6801E114F10479F070
:100FB000D701ED91FC910680F781E02DB801C701C2
:100FC0000995080F111DF701E084F184EECFD801D7
:100FD0001C92F60101900020E9F73197BF016C19CE
:100FE0007D0940E0C601C1CF6CE071E002C060E164
:100FF00071E06115710509F2FB01449150E080E850
:1010000040CF0FB6F894A8958091600088618093D6
:101010006000109260000FBEA895EE3F2AE0F20734
:1010200039F08091FE0A9091FF0A91838083A1CFCD
:101030001092FF0A1092FE0A9CCFEE3F8AE0F8075A
:1010400031F0808191819093FF0A8093FE0A87E7B7
:1010500097E7918380839BE088E10FB6F894A89589
:10106000809360000FBE9093600083CF6C960FB6A4
:10107000F894DEBF0FBECDBFDF91CF91FF91EF910E
:10108000BF91AF919F918F917F916F915F914F91A0
:101090003F912F911F910F91FF90EF90DF90CF9094
:1010A0000F900FBE0F901F901895CF93DF93CDB781
:1010B000DEB7A1970FB6F894DEBF0FBECDBF789410
:1010C00084B5826084BD84B5816084BD85B582604D
:1010D00085BD85B5816085BD80916E0081608093FE
:1010E0006E00109281008091810082608093810067
:1010F0008091810081608093810080918000816077
:101100008093800080919100826080939100809113
:101110009100816080939100809190008160809324
:1011200090008091C10084608093C1008091C100D3
:1011300082608093C1008091C10081608093C10072
:101140008091C30081608093C3008091C000826061
:101150008093C0008091C20081608093C200809122
:101160007A00846080937A0080917A008260809314
:101170007A0080917A00816080937A0080917A0071
:10118000806880937A001092780110925F0110922B
:1011900060018091D70081608093D70080EA8093BE
:1011A000D80089B5806189BD89B5826089BD09B4DF
:1011B00000FEFDCF0E9452028091D8008F7C80619A
:1011C0008093D8008091E000807F8093E000809140
:1011D000E1008E7E8093E1008DE08093E200559ADD
:1011E000209AEEEFFFE7859194918B3F9C4D19F487
:1011F00081E080935E0161E08DE00E94C10161E0C9
:1012000089E00E94F10161E08AE00E94F10161E061
:1012100085E00E94F10161E08DE00E94F10162E051
:1012200082E00E94F10162E084E00E94F10162E04C
:1012300086E00E94F10162E087E00E94F10162E035
:1012400088E00E94F10162E083E00E94F1018FEFEB
:101250009FEF90938601809385018CE391E00E943B
:10126000860461E085E00E94C10186E994E09093E4
:101270000D0180930C01809169008C7F82608093C6
:101280006900E89A809159018260809359012AE0AF
:10129000C22ED12CE12CF12C00E010E019A2CE01DD
:1012A00081965C0191E1492E512C612C712CC30176
:1012B000B201A70196010E940C0A605DF5016293DC
:1012C0005F01FAE04F1651046104710428F0412CCB
:1012D000512C32014394EBCFC5010E946E0486E489
:1012E00091E00E94860482E00E949801892BA1F07F
:1012F00084E00E949801892B79F086E00E94980191
:10130000892B51F087E00E949801892B29F088E011
:101310000E949801892B61F48091590184FD15C0C8
:1013200060E085E00E94C1018091590180610BC09D
:101330008091590184FF09C061E085E00E94C101EC
:10134000809159018F7E809359012FB7F894809135
:10135000630190916401A0916501B09166012FBF76
:10136000803B9F4FA105B10520F060E08DE00E9419
:10137000C1012FB7F8948091630190916401A0910D
:101380006501B09166012FBF40914C0150914D0114
:1013900060914E0170914F0140904C0150904D0171
:1013A00060904E0170904F01840D951DA61DB71DD4
:1013B000841B950BA60BB70B80934C0190934D01AA
:1013C000A0934E01B0934F018091590184FF08C052
:1013D0008091540190915501A0915601B09157010F
:1013E0000115110509F45ACF0E94000057CFE9E713
:1013F000F1E01382128288EE93E0A0E0B0E08483F3
:101400009583A683B7838AE191E0918380838FEFF0
:101410009FEF958784870895A1E21A2EAA1BBB1B14
:10142000FD010DC0AA1FBB1FEE1FFF1FA217B307B0
:10143000E407F50720F0A21BB30BE40BF50B661FC6
:10144000771F881F991F1A9469F76095709580958A
:1014500090959B01AC01BD01CF010895EE0FFF1FD8
:101460000590F491E02D099481E090E0F8940C94BB
:06147000390AF894FFCFD9
:10147600FFFFFFFF00E10000000000006C026C02AD
:101486006C026C026C0200000000E90369030A04A6
:10149600FF0350040E042C0400C180810000000DDF
:1014A6000A0052494E6752494E47200048616C6C0B
:0C14B60075203A3320006D69617520003C
:00000001FF
