:100000000C9462000C94DD020C94B6020C948A00ED
:100010000C948A000C948A000C948A000C948A0038
:100020000C948A000C948A000C948A000C948A0028
:100030000C948A000C948A000C948A000C948A0018
:100040000C946C020C948A000C942A030C94040304
:100050000C948A000C948A000C948A000C948A00F8
:100060000C948A000C948A000000000024002700F1
:100070002A0000000000250028002B0000000000DE
:1000800023002600290004040404040404040202DA
:100090000202020203030303030301020408102007
:1000A0004080010204081020010204081020000012
:1000B0000008000201000003040700000000000027
:1000C00000009B0411241FBECFEFD8E0DEBFCDBFE0
:1000D00011E0A0E0B1E0EAEAF9E002C005900D927B
:1000E000A432B107D9F721E0A4E2B1E001C01D922A
:1000F000A83DB207E1F710E0C2E6D0E004C02197C6
:10010000FE010E94C804C136D107C9F70E945C03F2
:100110000C94D3040C940000833081F028F48130D7
:1001200099F08230A1F008958730A9F08830B9F0B5
:100130008430D1F4809180008F7D03C08091800055
:100140008F7780938000089584B58F7702C084B53F
:100150008F7D84BD08958091B0008F7703C080911A
:10016000B0008F7D8093B0000895CF93DF93282F48
:1001700030E0F901E255FF4F8491F901E656FF4F57
:10018000D491F901EA57FF4FC491CC2391F081112A
:100190000E948C00EC2FF0E0EE0FFF1FE458FF4FA1
:1001A000A591B491EC91ED2381E090E021F480E001
:1001B00002C080E090E0DF91CF9108951F93CF932C
:1001C000DF93282F30E0F901E255FF4F8491F901C8
:1001D000E656FF4FD491F901EA57FF4FC491CC2363
:1001E000C9F0162F81110E948C00EC2FF0E0EE0F69
:1001F000FF1FEE58FF4FA591B4918FB7F8941111DE
:1002000005C09C91ED2FE095E92302C0EC91ED2B08
:10021000EC938FBFDF91CF911F910895CF93DF9320
:1002200090E0FC01E656FF4F2491FC01EA57FF4F96
:100230008491882361F190E0880F991FFC01E859AF
:10024000FF4FC591D491FC01EE58FF4FA591B49199
:10025000611109C09FB7F894888120958223888313
:10026000EC912E230BC0623061F49FB7F894388173
:10027000822F809583238883EC912E2B2C939FBF14
:1002800006C08FB7F894E8812E2B28838FBFDF91AB
:10029000CF9108950895CF92DF92EF92FF920F933E
:1002A0001F93CF93DF936C017A018B01C0E0D0E004
:1002B000CE15DF0589F0D8016D918D01D601ED9144
:1002C000FC910190F081E02DC6010995892B11F474
:1002D0007E0102C02196ECCFC701DF91CF911F9123
:1002E0000F91FF90EF90DF90CF900895089580E0F8
:1002F00090E00895FC01538D448D252F30E0842F2C
:1003000090E0821B930B541710F0CF96089501973D
:100310000895FC01918D828D981761F0828DDF0127
:10032000A80FB11D5D968C91928D9F5F9F73928FE8
:1003300090E008958FEF9FEF0895FC01918D828DDD
:10034000981731F0828DE80FF11D858D90E00895AA
:100350008FEF9FEF0895FC01918D228D892F90E002
:10036000805C9F4F821B91098F739927089584E2C7
:1003700091E00E94AB0121E0892B09F420E0822F5B
:100380000895FC01848DDF01A80FB11DA35ABF4F52
:100390002C91848D90E001968F739927848FA68984
:1003A000B7892C93A089B1898C9180648C93938DAB
:1003B000848D981306C00288F389E02D80818F7D9B
:1003C00080830895EF92FF920F931F93CF93DF9353
:1003D000EC0181E0888F9B8D8C8D981305C0E88996
:1003E000F989808185FD24C0F62E0B8D10E00F5F0A
:1003F0001F4F0F731127E02E8C8DE8120CC00FB623
:1004000007FCFACFE889F989808185FFF5CFCE0115
:100410000E94C101F1CF8B8DFE01E80FF11DE35A5F
:10042000FF4FF0820B8FEA89FB898081806207C0D1
:10043000EE89FF896083E889F989808180648083FF
:1004400081E090E0DF91CF911F910F91FF90EF90AD
:100450000895CF93DF93EC01888D8823C9F0EA8952
:10046000FB89808185FD05C0A889B9898C9186FDAD
:100470000FC00FB607FCF5CF808185FFF2CFA889AA
:10048000B9898C9185FFEDCFCE010E94C101E7CFE4
:10049000DF91CF91089580E090E0892B29F00E94B0
:1004A000B70181110C94000008950E94CE04809140
:1004B000CE0180618093CE0149E050E066E171E0B9
:1004C00084E291E00E944B0142E050E060E271E082
:1004D00084E291E00C944B011F920F920FB60F92A1
:1004E00011242F933F938F939F93AF93BF9380914A
:1004F000D4019091D501A091D601B091D70130914E
:10050000D30123E0230F2D3720F40196A11DB11D47
:1005100005C026E8230F0296A11DB11D2093D3012B
:100520008093D4019093D501A093D601B093D701C5
:100530008091CF019091D001A091D101B091D201D1
:100540000196A11DB11D8093CF019093D001A0937E
:10055000D101B093D201BF91AF919F918F913F9103
:100560002F910F900FBE0F901F9018951F920F9212
:100570000FB60F9211242F933F934F935F936F9376
:100580007F938F939F93AF93BF93EF93FF93E091EC
:100590000201F09103010995FF91EF91BF91AF9195
:1005A0009F918F917F916F915F914F913F912F918B
:1005B0000F900FBE0F901F9018951F920F920FB6BD
:1005C0000F9211242F933F934F935F936F937F93D9
:1005D0008F939F93AF93BF93EF93FF93E0910001AD
:1005E000F09101010995FF91EF91BF91AF919F911A
:1005F0008F917F916F915F914F913F912F910F90CC
:100600000FBE0F901F9018951F920F920FB60F926A
:1006100011242F933F934F935F936F937F938F9307
:100620009F93AF93BF93EF93FF9384E291E00E9477
:10063000C101FF91EF91BF91AF919F918F917F91F8
:100640006F915F914F913F912F910F900FBE0F903F
:100650001F9018951F920F920FB60F9211242F938F
:100660008F939F93EF93FF93E0913401F0913501C5
:100670008081E0913A01F0913B0182FD12C09081AE
:1006800080913D018F5F8F7320913E01821751F061
:10069000E0913D01F0E0EC5DFE4F958F80933D01D0
:1006A00001C08081FF91EF919F918F912F910F90C9
:1006B0000FBE0F901F901895789484B5826084BD0A
:1006C00084B5816084BD85B5826085BD85B5816056
:1006D00085BD80916E00816080936E0010928100D4
:1006E000809181008260809381008091810081608F
:1006F0008093810080918000816080938000809150
:10070000B10084608093B1008091B00081608093DB
:10071000B00080917A00846080937A0080917A00A2
:10072000826080937A0080917A00816080937A0061
:1007300080917A00806880937A001092C10061E015
:100740008DE00E94DE0061E089E00E940E0161E020
:100750008AE00E940E0161E085E00E940E0161E0E6
:100760008DE00E940E0162E082E00E940E0162E0D4
:1007700084E00E940E0162E086E00E940E0162E0C9
:1007800087E00E940E0162E088E00E940E0162E0B4
:1007900083E00E940E01E0913401F091350182E086
:1007A0008083E0913001F09131011082E0913201BB
:1007B000F091330180E1808310923C01E091380197
:1007C000F091390186E08083E0913601F0913701A4
:1007D000808180618083E0913601F09137018081D2
:1007E00088608083E0913601F091370180818068D4
:1007F0008083E0913601F091370180818F7D808385
:1008000061E085E00E94DE0087E592E090930301BD
:100810008093020180916900837F886080936900E2
:10082000E99A8091CE0182608093CE0182E00E949D
:10083000B500892B09F473C084E00E94B500892BB0
:1008400009F46DC086E00E94B500892B09F467C0E9
:1008500087E00E94B500892B09F461C088E00E94FE
:10086000B500892B09F45BC08091CE0184FF09C0DB
:1008700061E085E00E94DE008091CE018F7E809352
:10088000CE012FB7F8948091D4019091D501A09119
:10089000D601B091D7012FBF803B9F4FA105B10575
:1008A00020F060E08DE00E94DE002FB7F894809188
:1008B000D4019091D501A091D601B091D7012FBF5D
:1008C0004091C1015091C2016091C3017091C40176
:1008D0000091C1011091C2012091C3013091C40166
:1008E000800F911FA21FB31F841B950BA60BB70B84
:1008F0008093C1019093C201A093C301B093C4013E
:100900008091CE0184FF08C08091C9019091CA01F5
:10091000A091CB01B091CC010E944B0287CF809176
:10092000CE0184FDAECF60E085E00E94DE008091C4
:10093000CE018061A4CFE4E2F1E01382128288EE5E
:1009400093E0A0E0B0E084839583A683B78388E03A
:1009500091E09183808385EC90E09587848784EC97
:1009600090E09787868780EC90E0918B808B81EC7C
:1009700090E0938B828B82EC90E0958B848B86EC5D
:1009800090E0978B868B118E128E138E148E0895A5
:10099000EE0FFF1F0590F491E02D099481E090E0A7
:0A09A000F8940C94D304F894FFCFF0
:1009AA004A014A0100000000E2014B017A012902D2
:1009BA00AB0189019D0152494E6752494E472000B9
:0409CA000D0A000012
:00000001FF
