:100000000C9462000C948A000C948A000C948A0070
:100010000C948A000C948A000C948A000C948A0038
:100020000C948A000C948A000C948A000C948A0028
:100030000C948A000C948A000C948A000C948A0018
:100040000C94AC030C948A000C941C040C94F603DE
:100050000C948A000C948A000C948A000C948A00F8
:100060000C948A000C948A000000000024002700F1
:100070002A0000000000250028002B0000000000DE
:1000800023002600290004040404040404040202DA
:100090000202020203030303030301020408102007
:1000A0004080010204081020010204081020000012
:1000B0000008000201000003040700000000000027
:1000C0000000340611241FBECFEFD8E0DEBFCDBF45
:1000D00011E0A0E0B1E0E0E6F2E102C005900D928F
:1000E000A834B107D9F721E0A8E4B1E001C01D921E
:1000F000AC3FB207E1F710E0C2E6D0E004C02197C0
:10010000FE010E942309C136D107C9F70E944E049F
:100110000C942E090C940000833081F028F4813077
:1001200099F08230A1F008958730A9F08830B9F0B5
:100130008430D1F4809180008F7D03C08091800055
:100140008F7780938000089584B58F7702C084B53F
:100150008F7D84BD08958091B0008F7703C080911A
:10016000B0008F7D8093B0000895CF93DF93282F48
:1001700030E0F901E255FF4F8491F901E656FF4F57
:10018000D491F901EA57FF4FC491CC2391F081112A
:100190000E948C00EC2FF0E0EE0FFF1FE458FF4FA1
:1001A000A591B491EC91ED2381E090E021F480E001
:1001B00002C080E090E0DF91CF9108951F93CF932C
:1001C000DF93282F30E0F901E255FF4F8491F901C8
:1001D000E656FF4FD491F901EA57FF4FC491CC2363
:1001E000C9F0162F81110E948C00EC2FF0E0EE0F69
:1001F000FF1FEE58FF4FA591B4918FB7F8941111DE
:1002000005C09C91ED2FE095E92302C0EC91ED2B08
:10021000EC938FBFDF91CF911F910895CF93DF9320
:1002200090E0FC01E656FF4F2491FC01EA57FF4F96
:100230008491882361F190E0880F991FFC01E859AF
:10024000FF4FC591D491FC01EE58FF4FA591B49199
:10025000611109C09FB7F894888120958223888313
:10026000EC912E230BC0623061F49FB7F894388173
:10027000822F809583238883EC912E2B2C939FBF14
:1002800006C08FB7F894E8812E2B28838FBFDF91AB
:10029000CF9108951F93CF93DF93182FEB0161E067
:1002A0000E940E01209711F460E004C0CF3FD105F9
:1002B00039F461E0812FDF91CF911F910C94DE0022
:1002C000E12FF0E0E255FF4FE491E330F9F048F41C
:1002D000E130B9F0E230A1F584B5806284BDC8BDDB
:1002E00034C0E730E9F0E83019F1E43049F58091A5
:1002F0008000806280938000D0938B00C0938A003E
:1003000024C084B5806884BDC7BD1FC080918000B3
:10031000806880938000D0938900C093880015C0C6
:100320008091B00080688093B000C093B3000DC08E
:100330008091B00080628093B000C093B40005C08B
:10034000C038D1050CF0B5CFAFCFDF91CF911F9161
:1003500008953FB7F89480915B0190915C01A09162
:100360005D01B0915E0126B5A89B05C02F3F19F035
:100370000196A11DB11D3FBFBA2FA92F982F882725
:10038000820F911DA11DB11DBC01CD0142E0660F80
:10039000771F881F991F4A95D1F70895CF92DF9252
:1003A000EF92FF920F931F93CF93DF936C017A012B
:1003B0008B01C0E0D0E0CE15DF0589F0D8016D914A
:1003C0008D01D601ED91FC910190F081E02DC601E7
:1003D0000995892B11F47E0102C02196ECCFC7014B
:1003E000DF91CF911F910F91FF90EF90DF90CF9011
:1003F0000895089580E090E00895FC01538D448DA8
:10040000252F30E0842F90E0821B930B541710F0BF
:10041000CF96089501970895FC01918D828D9817CC
:1004200061F0828DDF01A80FB11D5D968C91928DD8
:100430009F5F9F73928F90E008958FEF9FEF0895D5
:10044000FC01918D828D981731F0828DE80FF11D9E
:10045000858D90E008958FEF9FEF0895FC01918DB9
:10046000228D892F90E0805C9F4F821B91098F73B2
:10047000992708958FE591E00E942E0221E0892BB3
:1004800009F420E0822F0895FC01848DDF01A80F7C
:10049000B11DA35ABF4F2C91848D90E001968F73AC
:1004A0009927848FA689B7892C93A089B1898C91CB
:1004B00080648C93938D848D981306C00288F38991
:1004C000E02D80818F7D80830895EF92FF920F93BE
:1004D0001F93CF93DF93EC0181E0888F9B8D8C8DF0
:1004E000981305C0E889F989808185FD24C0F62E1E
:1004F0000B8D10E00F5F1F4F0F731127E02E8C8DB7
:10050000E8120CC00FB607FCFACFE889F9898081A0
:1005100085FFF5CFCE010E944402F1CF8B8DFE0105
:10052000E80FF11DE35AFF4FF0820B8FEA89FB8938
:100530008081806207C0EE89FF896083E889F9893C
:1005400080818064808381E090E0DF91CF911F9172
:100550000F91FF90EF900895CF93DF93EC01888D7A
:100560008823C9F0EA89FB89808185FD05C0A889B7
:10057000B9898C9186FD0FC00FB607FCF5CF80813D
:1005800085FFF2CFA889B9898C9185FFEDCFCE0187
:100590000E944402E7CFDF91CF91089580E090E080
:1005A000892B29F00E943A0281110C9400000895D1
:1005B000E9E4F1E084858D7F848784858B7F84875F
:1005C000809148018D7F80934801809148018B7F05
:1005D0008093480114821582168217821086118634
:1005E00012861386089582E00E94B500892B11F4CB
:1005F00021E016C084E00E94B500892BC9F386E093
:100600000E94B500892BA1F387E00E94B500892BD9
:1006100079F388E00E94B50021E0892B09F020E001
:10062000822F0895009769F0FC0101900020E9F7FE
:100630003197AF01481B590BBC018FE591E00C9439
:10064000CE0180E090E008958F929F92AF92BF928A
:100650000F931F93CF93DF93CDB7DEB7A1970FB65C
:10066000F894DEBF0FBECDBF19A2423008F44AE0B5
:100670008E010F5D1F4F842E912CA12CB12CA50152
:1006800094010E940109E62FB901CA010150110924
:10069000EA3014F4E05D01C0E95CD801EC93232B4F
:1006A000242B252B61F7C8010E941203A1960FB6D7
:1006B000F894DEBF0FBECDBFDF91CF911F910F9198
:1006C000BF90AF909F908F9008950E942909CF927C
:1006D000DF92EF92FF926B017C0160914D0170916E
:1006E0004E0180914F01909150010E947B07A7011C
:1006F00096010E94C307A70196010E94D3066B01D1
:100700007C0120E030E040E05FE30E94CE0687FFFE
:1007100007C020E030E047E553E4C701B6010CC054
:10072000A701960160E070E080E89FE30E94610607
:1007300020E030E047E553E40E94940820E030E0F8
:1007400040E252E40E9462060E944507862FFF9015
:10075000EF90DF90CF9008951F920F920FB60F92F7
:1007600011242F933F938F939F93AF93BF938091C7
:10077000570190915801A0915901B0915A013091BF
:10078000560123E0230F2D3720F40196A11DB11D42
:1007900005C026E8230F0296A11DB11D2093560126
:1007A0008093570190935801A0935901B0935A0137
:1007B00080915B0190915C01A0915D01B0915E011F
:1007C0000196A11DB11D80935B0190935C01A093E4
:1007D0005D01B0935E01BF91AF919F918F913F9169
:1007E0002F910F900FBE0F901F9018951F920F9290
:1007F0000FB60F9211242F933F934F935F936F93F4
:100800007F938F939F93AF93BF93EF93FF938FE566
:1008100091E00E944402FF91EF91BF91AF919F91AF
:100820008F917F916F915F914F913F912F910F9099
:100830000FBE0F901F9018951F920F920FB60F9238
:1008400011242F938F939F93EF93FF93E0916F0168
:10085000F09170018081E0917501F091760182FD47
:1008600012C09081809178018F5F8F732091790100
:10087000821751F0E0917801F0E0E15AFE4F958F38
:100880008093780101C08081FF91EF919F918F91BA
:100890002F910F900FBE0F901F901895789484B5EC
:1008A000826084BD84B5816084BD85B5826085BD6C
:1008B00085B5816085BD80916E00816080936E00FA
:1008C00010928100809181008260809381008091EC
:1008D000810081608093810080918000816080939D
:1008E00080008091B10084608093B1008091B0005D
:1008F00081608093B00080917A00846080937A0058
:1009000080917A00826080937A0080917A00816081
:1009100080937A0080917A00806880937A001092A8
:10092000C10061E089E00E940E0161E08AE00E945E
:100930000E0161E085E00E940E0162E082E00E940B
:100940000E0162E084E00E940E0162E086E00E94F7
:100950000E0162E087E00E940E0162E088E00E94E2
:100960000E0162E083E00E940E01E0916F01F091C0
:10097000700182E08083E0916B01F0916C01108244
:10098000E0916D01F0916E0180E18083109277011A
:10099000E0917301F091740186E08083E091710130
:1009A000F0917201808180618083E0917101F0910A
:1009B0007201808188608083E0917101F091720101
:1009C000808180688083E0917101F0917201808163
:1009D0008F7D80830E94A9014B015C0188ECC82EA9
:1009E000D12CE12CF12C0E94A901DC01CB0188194A
:1009F0009909AA09BB09883E9340A105B10558F0A1
:100A000021E0C21AD108E108F10888EE880E83E0DF
:100A1000981EA11CB11CC114D104E104F10419F702
:100A200061E085E00E94DE0082E191E00E94120315
:100A30008BE191E00E9412030E94D802E12CF12C7C
:100A40008091510190915201A0915301B0915401B4
:100A5000892B8A2B8B2B09F0E8C080914D01909156
:100A60004E01A0914F01B0915001892B8A2B8B2B05
:100A700009F0DBC00E94F302882361F080914801F5
:100A800081FD15C060E085E00E94DE008091480194
:100A900082600BC08091480181FF09C061E085E060
:100AA0000E94DE00809148018D7F809348012FB71E
:100AB000F8948091570190915801A0915901B091FB
:100AC0005A012FBF813A9F4FA105B10510F0F701E0
:100AD00009952FB7F8948091570190915801A091F2
:100AE0005901B0915A012FBF4091490150914A01DB
:100AF00060914B0170914C018090490190904A01A6
:100B0000A0904B01B0904C01880D991DAA1DBB1DF2
:100B1000841B950BA60BB70B8093490190934A0158
:100B2000A0934B01B0934C018091480182FF23C0F8
:100B30008091550181FF15C060914D0170914E016A
:100B400080914F01909150010E947B0720E030E49A
:100B50004CE156E40E948F0887FD2DC00E94D80208
:100B60002AC08091550182608093550160E085E044
:100B70000E94DE0020C08091480181FF1CC060916E
:100B800051017091520180915301909154010E9442
:100B90007B0720E030E048E453E40E948F081816F9
:100BA000ECF683E00E94B500892BC1F680914801E4
:100BB0008460809348010E94F302882381F060E002
:100BC00070E086E993E40E946703682F70E089E093
:100BD0000E944A0160E070E086E993E413C08091CE
:100BE000480181FF17C060E070E08AE794E40E944A
:100BF0006703682F70E089E00E944A0160E070E0BE
:100C00008AE794E40E946703682F70E08AE00E94FC
:100C10004A0108C060E089E00E94DE0060E08AE0EE
:100C20000E94DE000E94CE020BCF8EE191E00E9476
:100C30001203609151017091520180915301909182
:100C400054014AE00E94240382E391E00E941203CF
:100C500060914D0170914E0180914F019091500132
:100C60004AE00E94240306CFEFE5F1E013821282EE
:100C700088EE93E0A0E0B0E084839583A683B783F9
:100C800084E091E09183808385EC90E09587848770
:100C900084EC90E09787868780EC90E0918B808B46
:100CA00081EC90E0938B828B82EC90E0958B848B2F
:100CB00086EC90E0978B868B118E128E138E148E9D
:100CC00008955058BB27AA270E9479060C9455080E
:100CD0000E94470838F00E944E0820F039F49F3FE8
:100CE00019F426F40C9444080EF4E095E7FB0C94F8
:100CF0003008E92F0E94660858F3BA176207730795
:100D00008407950720F079F4A6F50C9488080EF472
:100D1000E0950B2EBA2FA02D0B01B90190010C010B
:100D2000CA01A0011124FF27591B99F0593F50F423
:100D3000503E68F11A16F040A22F232F342F44277B
:100D4000585FF3CF469537952795A795F040539573
:100D5000C9F77EF41F16BA0B620B730B840BBAF043
:100D60009150A1F0FF0FBB1F661F771F881FC2F7AE
:100D70000EC0BA0F621F731F841F48F487957795C2
:100D80006795B795F7959E3F08F0B0CF9395880F7C
:100D900008F09927EE0F9795879508950E940C0803
:100DA00008F481E008950E94E7060C9455080E941B
:100DB0004E0858F00E94470840F029F45F3F29F0A0
:100DC0000C94300851110C9489080C9444080E942A
:100DD000660868F39923B1F3552391F3951B550BDE
:100DE000BB27AA2762177307840738F09F5F5F4FFE
:100DF000220F331F441FAA1FA9F335D00E2E3AF03D
:100E0000E0E832D091505040E695001CCAF72BD054
:100E1000FE2F29D0660F771F881FBB1F26173707A5
:100E20004807AB07B0E809F0BB0B802DBF01FF27D7
:100E300093585F4F3AF09E3F510578F00C9430087C
:100E40000C9489085F3FE4F3983ED4F38695779538
:100E50006795B795F7959F5FC9F7880F911D969590
:100E6000879597F90895E1E0660F771F881FBB1FEC
:100E7000621773078407BA0720F0621B730B840B99
:100E8000BA0BEE1F88F7E09508950E944C0768940E
:100E9000B1110C94890808950E946E0888F09F573C
:100EA00098F0B92F9927B751B0F0E1F0660F771F8E
:100EB000881F991F1AF0BA95C9F714C0B13091F084
:100EC0000E948808B1E008950C948808672F782F55
:100ED0008827B85F39F0B93FCCF386957795679549
:100EE000B395D9F73EF490958095709561957F4FB5
:100EF0008F4F9F4F0895E89409C097FB3EF490955B
:100F00008095709561957F4F8F4F9F4F9923A9F0E2
:100F1000F92F96E9BB279395F69587957795679571
:100F2000B795F111F8CFFAF4BB0F11F460FF1BC0B5
:100F30006F5F7F4F8F4F9F4F16C0882311F096E948
:100F400011C0772321F09EE8872F762F05C06623F6
:100F500071F096E8862F70E060E02AF09A95660FAF
:100F6000771F881FDAF7880F9695879597F9089568
:100F70000E94470820F019F00E944E0850F40C948B
:100F800044080C948908E92F0E94660888F35523C9
:100F9000B1F3E7FB6217730784079507A8F189F39C
:100FA000E92FFF2788232AF03197660F771F881FC4
:100FB000DAF7952F5527442332F091505040220FF5
:100FC000331F441FD2F7BB27E91BF50B621B730BC2
:100FD000840BB109B1F222F4620F731F841FB11D9B
:100FE00031972AF0660F771F881FBB1FEFCF9150F4
:100FF000504062F041F0882332F0660F771F881F5F
:1010000091505040C1F793950C943608869577958A
:1010100067959F5FD9F7F7CF990F0008550FAA0B77
:10102000E0E8FEEF16161706E807F907C0F01216FB
:101030001306E407F50798F0621B730B840B950BFE
:1010400039F40A2661F0232B242B252B21F4089553
:101050000A2609F4A140A6958FEF811D811D0895F0
:1010600097F99F6780E870E060E008959F3F31F056
:10107000915020F4879577956795B795880F911DC6
:101080009695879597F908959FEF80EC0895002431
:101090000A941616170618060906089500240A94DD
:1010A00012161306140605060895092E0394000C63
:1010B00011F4882352F0BB0F40F4BF2B11F460FFF2
:1010C00004C06F5F7F4F8F4F9F4F089557FD90581B
:1010D000440F551F59F05F3F71F04795880F97FBFC
:1010E000991F61F09F3F79F08795089512161306B6
:1010F0001406551FF2CF4695F1DF08C016161706E5
:101100001806991FF1CF8695710561050894089519
:10111000E894BB2766277727CB0197F908950E94AB
:101120000C0808F48FEF08950E94A7080C94550846
:101130000E94470838F00E944E0820F0952311F0D5
:101140000C9430080C94440811240C9489080E94D3
:10115000660870F3959FC1F3950F50E0551F629F8D
:10116000F001729FBB27F00DB11D639FAA27F00D00
:10117000B11DAA1F649F6627B00DA11D661F829F27
:101180002227B00DA11D621F739FB00DA11D621F0C
:10119000839FA00D611D221F749F3327A00D611D29
:1011A000231F849F600D211D822F762F6A2F11240B
:1011B0009F5750409AF0F1F088234AF0EE0FFF1F3E
:1011C000BB1F661F771F881F91505040A9F79E3F95
:1011D000510580F00C9430080C9489085F3FE4F3CB
:1011E000983ED4F3869577956795B795F795E795EB
:1011F0009F5FC1F7FE2B880F911D9695879597F9F4
:101200000895A1E21A2EAA1BBB1BFD010DC0AA1F47
:10121000BB1FEE1FFF1FA217B307E407F50720F05F
:10122000A21BB30BE40BF50B661F771F881F991FDA
:101230001A9469F760957095809590959B01AC0123
:10124000BD01CF010895EE0FFF1F0590F491E02D31
:10125000099481E090E0F8940C942E09F894FFCF63
:10126000000000006502CE01FD01AC022E020C025E
:1012700020024E45555354415254000D0A000A5461
:10128000696D657220456E747072656C6C65723A3A
:1012900020000A54696D6572204C6575636874643A
:0812A000617565723A2000003F
:00000001FF
