:100000000C9462000C9438040C9411040C948A0033
:100010000C948A000C948A000C948A000C948A0038
:100020000C948A000C948A000C948A000C948A0028
:100030000C948A000C948A000C948A000C948A0018
:100040000C94C7030C948A000C9485040C945F04F0
:100050000C948A000C948A000C948A000C948A00F8
:100060000C948A000C948A000000000024002700F1
:100070002A0000000000250028002B0000000000DE
:1000800023002600290004040404040404040202DA
:100090000202020203030303030301020408102007
:1000A0004080010204081020010204081020000012
:1000B0000008000201000003040700000000000027
:1000C00000009D0611241FBECFEFD8E0DEBFCDBFDC
:1000D00011E0A0E0B1E0E2E3F3E102C005900D928F
:1000E000A435B107D9F722E0A4E5B1E001C01D9223
:1000F000A830B207E1F710E0C2E6D0E004C02197D3
:10010000FE010E948C09C136D107C9F70E94B704CD
:100110000C9497090C940000833081F028F481300E
:1001200099F08230A1F008958730A9F08830B9F0B5
:100130008430D1F4809180008F7D03C08091800055
:100140008F7780938000089584B58F7702C084B53F
:100150008F7D84BD08958091B0008F7703C080911A
:10016000B0008F7D8093B0000895CF93DF93282F48
:1001700030E0F901E255FF4F8491F901E656FF4F57
:10018000D491F901EA57FF4FC491CC2391F081112A
:100190000E948C00EC2FF0E0EE0FFF1FE458FF4FA1
:1001A000A591B491EC91ED2381E090E021F480E001
:1001B00002C080E090E0DF91CF9108951F93CF932C
:1001C000DF93282F30E0F901E255FF4F8491F901C8
:1001D000E656FF4FD491F901EA57FF4FC491CC2363
:1001E000C9F0162F81110E948C00EC2FF0E0EE0F69
:1001F000FF1FEE58FF4FA591B4918FB7F8941111DE
:1002000005C09C91ED2FE095E92302C0EC91ED2B08
:10021000EC938FBFDF91CF911F910895CF93DF9320
:1002200090E0FC01E656FF4F2491FC01EA57FF4F96
:100230008491882361F190E0880F991FFC01E859AF
:10024000FF4FC591D491FC01EE58FF4FA591B49199
:10025000611109C09FB7F894888120958223888313
:10026000EC912E230BC0623061F49FB7F894388173
:10027000822F809583238883EC912E2B2C939FBF14
:1002800006C08FB7F894E8812E2B28838FBFDF91AB
:10029000CF9108951F93CF93DF93182FEB0161E067
:1002A0000E940E01209711F460E004C0CF3FD105F9
:1002B00039F461E0812FDF91CF911F910C94DE0022
:1002C000E12FF0E0E255FF4FE491E330F9F048F41C
:1002D000E130B9F0E230A1F584B5806284BDC8BDDB
:1002E00034C0E730E9F0E83019F1E43049F58091A5
:1002F0008000806280938000D0938B00C0938A003E
:1003000024C084B5806884BDC7BD1FC080918000B3
:10031000806880938000D0938900C093880015C0C6
:100320008091B00080688093B000C093B3000DC08E
:100330008091B00080628093B000C093B40005C08B
:10034000C038D1050CF0B5CFAFCFDF91CF911F9161
:1003500008953FB7F8948091670190916801A0914A
:100360006901B0916A0126B5A89B05C02F3F19F01D
:100370000196A11DB11D3FBFBA2FA92F982F882725
:10038000820F911DA11DB11DBC01CD0142E0660F80
:10039000771F881F991F4A95D1F708950895CF9226
:1003A000DF92EF92FF920F931F93CF93DF936C0135
:1003B0007A018B01C0E0D0E0CE15DF0589F0D801CD
:1003C0006D918D01D601ED91FC910190F081E02DB0
:1003D000C6010995892B11F47E0102C02196ECCF4C
:1003E000C701DF91CF911F910F91FF90EF90DF90A8
:1003F000CF900895089580E090E00895FC01538D1A
:10040000448D252F30E0842F90E0821B930B5417EE
:1004100010F0CF96089501970895FC01918D828D7B
:10042000981761F0828DDF01A80FB11D5D968C9148
:10043000928D9F5F9F73928F90E008958FEF9FEF53
:100440000895FC01918D828D981731F0828DE80F0F
:10045000F11D858D90E008958FEF9FEF0895FC01C9
:10046000918D228D892F90E0805C9F4F821B910996
:100470008F73992708958BE691E00E942F0221E067
:10048000892B09F420E0822F0895FC01848DDF017F
:10049000A80FB11DA35ABF4F2C91848D90E00196F7
:1004A0008F739927848FA689B7892C93A089B189E6
:1004B0008C9180648C93938D848D981306C00288F0
:1004C000F389E02D80818F7D80830895EF92FF92E4
:1004D0000F931F93CF93DF93EC0181E0888F9B8D67
:1004E0008C8D981305C0E889F989808185FD24C029
:1004F000F62E0B8D10E00F5F1F4F0F731127E02EAC
:100500008C8DE8120CC00FB607FCFACFE889F98988
:10051000808185FFF5CFCE010E944502F1CF8B8D02
:10052000FE01E80FF11DE35AFF4FF0820B8FEA89BD
:10053000FB898081806207C0EE89FF896083E8893A
:10054000F98980818064808381E090E0DF91CF91A0
:100550001F910F91FF90EF900895CF93DF93EC01DF
:10056000888D8823C9F0EA89FB89808185FD05C0D3
:10057000A889B9898C9186FD0FC00FB607FCF5CF0D
:10058000808185FFF2CFA889B9898C9185FFEDCF55
:10059000CE010E944502E7CFDF91CF91089580E020
:1005A00090E0892B29F00E943B0281110C940000FD
:1005B0000895E5E5F1E084858D7F848784858B7FD0
:1005C0008487809154018D7F8093540180915401E0
:1005D0008B7F8093540114821582168217821086B5
:1005E00011861286138685E793E09093030180932A
:1005F0000201E9E6F0E08081837F88608083E99AE8
:10060000089582E00E94B500892B11F421E016C004
:1006100084E00E94B500892BC9F386E00E94B500F2
:10062000892BA1F387E00E94B500892B79F388E03C
:100630000E94B50021E0892B09F020E0822F089567
:10064000009769F0FC0101900020E9F73197AF01B4
:10065000481B590BBC018BE691E00C94CF0180E064
:1006600090E008958F929F92AF92BF920F931F9345
:10067000CF93DF93CDB7DEB7A1970FB6F894DEBF67
:100680000FBECDBF19A2423008F44AE08E010F5DC3
:100690001F4F842E912CA12CB12CA50194010E94F6
:1006A0006A09E62FB901CA0101501109EA3014F4B0
:1006B000E05D01C0E95CD801EC93232B242B252BB2
:1006C00061F7C8010E942003A1960FB6F894DEBF1F
:1006D0000FBECDBFDF91CF911F910F91BF90AF9013
:1006E0009F908F9008950E9492098091540182609A
:1006F0008093540186E191E00E9420038FE191E014
:100700000C942003CF92DF92EF92FF926B017C0159
:100710006091590170915A0180915B0190915C0147
:100720000E94E407A70196010E942C08A7019601E8
:100730000E943C076B017C0120E030E040E05FE379
:100740000E94370787FF07C020E030E047E553E409
:10075000C701B6010CC0A701960160E070E080E817
:100760009FE30E94CA0620E030E047E553E40E9480
:10077000FD0820E030E040E252E40E94CB060E94F7
:10078000AE07862FFF90EF90DF90CF9008951F92D5
:100790000F920FB60F9211242F933F938F939F9335
:1007A000AF93BF938091630190916401A091650123
:1007B000B09166013091620123E0230F2D3720F4C0
:1007C0000196A11DB11D05C026E8230F0296A11DAB
:1007D000B11D209362018093630190936401A09303
:1007E0006501B09366018091670190916801A091C5
:1007F0006901B0916A010196A11DB11D8093670145
:1008000090936801A0936901B0936A01BF91AF9181
:100810009F918F913F912F910F900FBE0F901F903E
:1008200018951F920F920FB60F9211242F933F939A
:100830004F935F936F937F938F939F93AF93BF93E8
:10084000EF93FF93E0910201F09103010995FF916D
:10085000EF91BF91AF919F918F917F916F915F9138
:100860004F913F912F910F900FBE0F901F901895B1
:100870001F920F920FB60F9211242F933F934F9315
:100880005F936F937F938F939F93AF93BF93EF93F8
:10089000FF93E0910001F09101010995FF91EF9123
:1008A000BF91AF919F918F917F916F915F914F9188
:1008B0003F912F910F900FBE0F901F9018951F9290
:1008C0000F920FB60F9211242F933F934F935F9384
:1008D0006F937F938F939F93AF93BF93EF93FF9308
:1008E0008BE691E00E944502FF91EF91BF91AF919D
:1008F0009F918F917F916F915F914F913F912F9138
:100900000F900FBE0F901F9018951F920F920FB669
:100910000F9211242F938F939F93EF93FF93E09166
:100920007B01F0917C018081E0918101F091820155
:1009300082FD12C09081809184018F5F8F7320911E
:100940008501821751F0E0918401F0E0E559FE4FF6
:10095000958F8093840101C08081FF91EF919F91D9
:100960008F912F910F900FBE0F901F901895789434
:1009700084B5826084BD84B5816084BD85B58260A4
:1009800085BD85B5816085BD80916E008160809355
:100990006E001092810080918100826080938100BE
:1009A00080918100816080938100809180008160CE
:1009B000809380008091B10084608093B100809129
:1009C000B00081608093B00080917A008460809351
:1009D0007A0080917A00826080937A0080917A0018
:1009E000816080937A0080917A00806880937A0099
:1009F0001092C10061E089E00E940E0161E08AE08E
:100A00000E940E0161E085E00E940E0162E082E03A
:100A10000E940E0162E084E00E940E0162E086E026
:100A20000E940E0162E087E00E940E0162E088E011
:100A30000E940E0162E083E00E940E01E0917B01C2
:100A4000F0917C0182E08083E0917701F091780160
:100A50001082E0917901F0917A0180E18083109217
:100A60008301E0917F01F091800186E08083E09135
:100A70007D01F0917E01808180618083E0917D0124
:100A8000F0917E01808188608083E0917D01F0910A
:100A90007E01808180688083E0917D01F0917E01FC
:100AA00080818F7D80830E94A9014B015C0188ECCD
:100AB000C82ED12CE12CF12C0E94A901DC01CB0124
:100AC00088199909AA09BB09883E9340A105B10577
:100AD00058F021E0C21AD108E108F10888EE880E2A
:100AE00083E0981EA11CB11CC114D104E104F104DF
:100AF00019F761E085E00E94DE0082E291E00E9449
:100B000020038FE191E00E9420030E94D902E12C92
:100B1000F12C80915D0190915E01A0915F01B091F7
:100B20006001892B8A2B8B2B09F0E8C08091590139
:100B300090915A01A0915B01B0915C01892B8A2BA5
:100B40008B2B09F0DBC00E940103882361F08091A8
:100B5000540181FD15C060E085E00E94DE008091B7
:100B6000540182600BC08091540181FF09C061E093
:100B700085E00E94DE00809154018D7F80935401B6
:100B80002FB7F8948091630190916401A091650161
:100B9000B09166012FBF813A9F4FA105B10510F0BA
:100BA000F70109952FB7F894809163019091640142
:100BB000A0916501B09166012FBF40915501509100
:100BC00056016091570170915801809055019090A5
:100BD0005601A0905701B0905801880D991DAA1D8B
:100BE000BB1D841B950BA60BB70B809355019093EF
:100BF0005601A0935701B09358018091540182FF90
:100C000023C08091610181FF15C0609159017091ED
:100C10005A0180915B0190915C010E94E40720E001
:100C200030E44CE156E40E94F80887FD2DC00E9494
:100C3000D9022AC08091610182608093610160E0E5
:100C400085E00E94DE0020C08091540181FF1CC01D
:100C500060915D0170915E0180915F0190916001F2
:100C60000E94E40720E030E048E453E40E94F808E2
:100C70001816ECF683E00E94B500892BC1F680912E
:100C800054018460809354010E940103882381F001
:100C900060E070E086E993E40E948203682F70E0D0
:100CA00089E00E944A0160E070E086E993E413C0A5
:100CB0008091540181FF17C060E070E08AE794E4FE
:100CC0000E948203682F70E089E00E944A0160E080
:100CD00070E08AE794E40E948203682F70E08AE063
:100CE0000E944A0108C060E089E00E94DE0060E0E6
:100CF0008AE00E94DE000E94CF020BCF8BE291E0DF
:100D00000E94200360915D0170915E0180915F01FE
:100D1000909160014AE00E9432038FE391E00E94CB
:100D200020036091590170915A0180915B0190916B
:100D30005C014AE00E94320306CFEBE6F1E0138249
:100D4000128288EE93E0A0E0B0E084839583A683CE
:100D5000B78388E091E09183808385EC90E095876C
:100D6000848784EC90E09787868780EC90E0918B75
:100D7000808B81EC90E0938B828B82EC90E0958B62
:100D8000848B86EC90E0978B868B118E128E138E5F
:100D9000148E08955058BB27AA270E94E2060C948F
:100DA000BE080E94B00838F00E94B70820F039F45D
:100DB0009F3F19F426F40C94AD080EF4E095E7FB80
:100DC0000C949908E92F0E94CF0858F3BA176207CC
:100DD00073078407950720F079F4A6F50C94F108C1
:100DE0000EF4E0950B2EBA2FA02D0B01B901900146
:100DF0000C01CA01A0011124FF27591B99F0593F8A
:100E000050F4503E68F11A16F040A22F232F342FD1
:100E10004427585FF3CF469537952795A795F0401F
:100E20005395C9F77EF41F16BA0B620B730B840B34
:100E3000BAF09150A1F0FF0FBB1F661F771F881FEC
:100E4000C2F70EC0BA0F621F731F841F48F4879544
:100E500077956795B795F7959E3F08F0B0CF939536
:100E6000880F08F09927EE0F9795879508950E94AF
:100E7000750808F481E008950E9450070C94BE089C
:100E80000E94B70858F00E94B00840F029F45F3F74
:100E900029F00C94990851110C94F2080C94AD08A7
:100EA0000E94CF0868F39923B1F3552391F3951B62
:100EB000550BBB27AA2762177307840738F09F5F7B
:100EC0005F4F220F331F441FAA1FA9F335D00E2EE8
:100ED0003AF0E0E832D091505040E695001CCAF755
:100EE0002BD0FE2F29D0660F771F881FBB1F261718
:100EF00037074807AB07B0E809F0BB0B802DBF01EF
:100F0000FF2793585F4F3AF09E3F510578F00C94BD
:100F100099080C94F2085F3FE4F3983ED4F3869569
:100F200077956795B795F7959F5FC9F7880F911DDE
:100F30009695879597F90895E1E0660F771F881FCA
:100F4000BB1F621773078407BA0720F0621B730B7D
:100F5000840BBA0BEE1F88F7E09508950E94B50741
:100F60006894B1110C94F20808950E94D70888F093
:100F70009F5798F0B92F9927B751B0F0E1F0660F5D
:100F8000771F881F991F1AF0BA95C9F714C0B1309E
:100F900091F00E94F108B1E008950C94F108672FD8
:100FA000782F8827B85F39F0B93FCCF386957795CD
:100FB0006795B395D9F73EF49095809570956195B6
:100FC0007F4F8F4F9F4F0895E89409C097FB3EF4E1
:100FD00090958095709561957F4F8F4F9F4F992386
:100FE000A9F0F92F96E9BB279395F6958795779504
:100FF0006795B795F111F8CFFAF4BB0F11F460FFC4
:101000001BC06F5F7F4F8F4F9F4F16C0882311F01B
:1010100096E911C0772321F09EE8872F762F05C02F
:10102000662371F096E8862F70E060E02AF09A95CA
:10103000660F771F881FDAF7880F9695879597F9BF
:1010400008950E94B00820F019F00E94B70850F4EB
:101050000C94AD080C94F208E92F0E94CF0888F395
:101060005523B1F3E7FB6217730784079507A8F1CF
:1010700089F3E92FFF2788232AF03197660F771F1E
:10108000881FDAF7952F5527442332F091505040AE
:10109000220F331F441FD2F7BB27E91BF50B621B3E
:1010A000730B840BB109B1F222F4620F731F841F1A
:1010B000B11D31972AF0660F771F881FBB1FEFCF36
:1010C0009150504062F041F0882332F0660F771F54
:1010D000881F91505040C1F793950C949F088695B6
:1010E000779567959F5FD9F7F7CF990F0008550F50
:1010F000AA0BE0E8FEEF16161706E807F907C0F09E
:1011000012161306E407F50798F0621B730B840BA5
:10111000950B39F40A2661F0232B242B252B21F47F
:1011200008950A2609F4A140A6958FEF811D811D1F
:10113000089597F99F6780E870E060E008959F3F09
:1011400031F0915020F4879577956795B795880F82
:10115000911D9695879597F908959FEF80EC0895D6
:1011600000240A9416161706180609060895002486
:101170000A9412161306140605060895092E039400
:10118000000C11F4882352F0BB0F40F4BF2B11F474
:1011900060FF04C06F5F7F4F8F4F9F4F089557FDD3
:1011A0009058440F551F59F05F3F71F04795880FD5
:1011B00097FB991F61F09F3F79F08795089512166C
:1011C00013061406551FF2CF4695F1DF08C0161618
:1011D00017061806991FF1CF8695710561050894C9
:1011E0000895E894BB2766277727CB0197F90895E0
:1011F0000E94750808F48FEF08950E9410090C945E
:10120000BE080E94B00838F00E94B70820F095236D
:1012100011F00C9499080C94AD0811240C94F20868
:101220000E94CF0870F3959FC1F3950F50E0551FB2
:10123000629FF001729FBB27F00DB11D639FAA272B
:10124000F00DB11DAA1F649F6627B00DA11D661F7A
:10125000829F2227B00DA11D621F739FB00DA11D9B
:10126000621F839FA00D611D221F749F3327A00D55
:10127000611D231F849F600D211D822F762F6A2FF1
:1012800011249F5750409AF0F1F088234AF0EE0F56
:10129000FF1FBB1F661F771F881F91505040A9F783
:1012A0009E3F510580F00C9499080C94F2085F3F22
:1012B000E4F3983ED4F3869577956795B795F795BF
:1012C000E7959F5FC1F7FE2B880F911D9695879537
:1012D00097F90895A1E21A2EAA1BBB1BFD010DC0B0
:1012E000AA1FBB1FEE1FFF1FA217B307E407F507D6
:1012F00020F0A21BB30BE40BF50B661F771F881FB2
:10130000991F1A9469F760957095809590959B0147
:10131000AC01BD01CF010895EE0FFF1F0590F491C0
:10132000E02D099481E090E0F8940C949709F894EA
:02133000FFCFED
:10133200CE01CE01000000006602CF01FE01AD0227
:101342002F020D02210252494E6752494E47000DAB
:101352000A004E45555354415254000A54696D6572
:101362007220456E747072656C6C65723A20000A68
:1013720054696D6572204C65756368746461756546
:04138200723A20009B
:00000001FF
