:100000000C9462000C9428030C9401030C948A0055
:100010000C948A000C948A000C948A000C948A0038
:100020000C948A000C948A000C948A000C948A0028
:100030000C948A000C948A000C948A000C948A0018
:100040000C94B7020C948A000C9475030C944F0323
:100050000C948A000C948A000C948A000C948A00F8
:100060000C948A000C948A000000000024002700F1
:100070002A0000000000250028002B0000000000DE
:1000800023002600290004040404040404040202DA
:100090000202020203030303030301020408102007
:1000A0004080010204081020010204081020000012
:1000B0000008000201000003040700000000000027
:1000C00000001B0511241FBECFEFD8E0DEBFCDBF5F
:1000D00011E0A0E0B1E0EEEEFAE002C005900D9272
:1000E000A836B107D9F722E0A8E6B1E001C01D9219
:1000F000AC31B207E1F710E0C2E6D0E004C02197CE
:10010000FE010E946A05C136D107C9F70E94A70304
:100110000C9475050C940000833081F028F4813034
:1001200099F08230A1F008958730A9F08830B9F0B5
:100130008430D1F4809180008F7D03C08091800055
:100140008F7780938000089584B58F7702C084B53F
:100150008F7D84BD08958091B0008F7703C080911A
:10016000B0008F7D8093B0000895CF93DF93282F48
:1001700030E0F901E255FF4F8491F901E656FF4F57
:10018000D491F901EA57FF4FC491CC2391F081112A
:100190000E948C00EC2FF0E0EE0FFF1FE458FF4FA1
:1001A000A591B491EC91ED2381E090E021F480E001
:1001B00002C080E090E0DF91CF9108951F93CF932C
:1001C000DF93282F30E0F901E255FF4F8491F901C8
:1001D000E656FF4FD491F901EA57FF4FC491CC2363
:1001E000C9F0162F81110E948C00EC2FF0E0EE0F69
:1001F000FF1FEE58FF4FA591B4918FB7F8941111DE
:1002000005C09C91ED2FE095E92302C0EC91ED2B08
:10021000EC938FBFDF91CF911F910895CF93DF9320
:1002200090E0FC01E656FF4F2491FC01EA57FF4F96
:100230008491882361F190E0880F991FFC01E859AF
:10024000FF4FC591D491FC01EE58FF4FA591B49199
:10025000611109C09FB7F894888120958223888313
:10026000EC912E230BC0623061F49FB7F894388173
:10027000822F809583238883EC912E2B2C939FBF14
:1002800006C08FB7F894E8812E2B28838FBFDF91AB
:10029000CF9108950895CF92DF92EF92FF920F933E
:1002A0001F93CF93DF936C017A018B01C0E0D0E004
:1002B000CE15DF0589F0D8016D918D01D601ED9144
:1002C000FC910190F081E02DC6010995892B11F474
:1002D0007E0102C02196ECCFC701DF91CF911F9123
:1002E0000F91FF90EF90DF90CF900895089580E0F8
:1002F00090E00895FC01538D448D252F30E0842F2C
:1003000090E0821B930B541710F0CF96089501973D
:100310000895FC01918D828D981761F0828DDF0127
:10032000A80FB11D5D968C91928D9F5F9F73928FE8
:1003300090E008958FEF9FEF0895FC01918D828DDD
:10034000981731F0828DE80FF11D858D90E00895AA
:100350008FEF9FEF0895FC01918D228D892F90E002
:10036000805C9F4F821B91098F73992708958FE7B7
:1003700091E00E94AB0121E0892B09F420E0822F5B
:100380000895FC01848DDF01A80FB11DA35ABF4F52
:100390002C91848D90E001968F739927848FA68984
:1003A000B7892C93A089B1898C9180648C93938DAB
:1003B000848D981306C00288F389E02D80818F7D9B
:1003C00080830895EF92FF920F931F93CF93DF9353
:1003D000EC0181E0888F9B8D8C8D981305C0E88996
:1003E000F989808185FD24C0F62E0B8D10E00F5F0A
:1003F0001F4F0F731127E02E8C8DE8120CC00FB623
:1004000007FCFACFE889F989808185FFF5CFCE0115
:100410000E94C101F1CF8B8DFE01E80FF11DE35A5F
:10042000FF4FF0820B8FEA89FB898081806207C0D1
:10043000EE89FF896083E889F989808180648083FF
:1004400081E090E0DF91CF911F910F91FF90EF90AD
:100450000895CF93DF93EC01888D8823C9F0EA8952
:10046000FB89808185FD05C0A889B9898C9186FDAD
:100470000FC00FB607FCF5CF808185FFF2CFA889AA
:10048000B9898C9185FFEDCFCE010E94C101E7CFE4
:10049000DF91CF91089580E090E0892B29F00E94B0
:1004A000B70181110C9400000895009769F0FC01D8
:1004B00001900020E9F73197AF01481B590BBC01AF
:1004C0008FE791E00C944B0180E090E008958F92CB
:1004D0009F92AF92BF920F931F93CF93DF93CDB7AD
:1004E000DEB7A1970FB6F894DEBF0FBECDBF19A23D
:1004F000423008F44AE08E010F5D1F4F842E912C8C
:10050000A12CB12CA50194010E944805E62FB90148
:10051000CA0101501109EA3014F4E05D01C0E95C40
:10052000D801EC93232B242B252B61F7C8010E94C3
:100530005502A1960FB6F894DEBF0FBECDBFDF9176
:10054000CF911F910F91BF90AF909F908F90089582
:100550000E9470058091680180618093680186E146
:1005600091E00E94550280E291E00C9455021F92A6
:100570000F920FB60F9211242F933F938F939F9357
:10058000AF93BF9380917B0190917C01A0917D01FD
:10059000B0917E0130917A0123E0230F2D3720F4B2
:1005A0000196A11DB11D05C026E8230F0296A11DCD
:1005B000B11D20937A0180937B0190937C01A093DD
:1005C0007D01B0937E018091760190917701A09199
:1005D0007801B09179010196A11DB11D809376013A
:1005E00090937701A0937801B0937901BF91AF9177
:1005F0009F918F913F912F910F900FBE0F901F9061
:1006000018951F920F920FB60F9211242F933F93BC
:100610004F935F936F937F938F939F93AF93BF930A
:10062000EF93FF93E0910201F09103010995FF918F
:10063000EF91BF91AF919F918F917F916F915F915A
:100640004F913F912F910F900FBE0F901F901895D3
:100650001F920F920FB60F9211242F933F934F9337
:100660005F936F937F938F939F93AF93BF93EF931A
:10067000FF93E0910001F09101010995FF91EF9145
:10068000BF91AF919F918F917F916F915F914F91AA
:100690003F912F910F900FBE0F901F9018951F92B2
:1006A0000F920FB60F9211242F933F934F935F93A6
:1006B0006F937F938F939F93AF93BF93EF93FF932A
:1006C0008FE791E00E94C101FF91EF91BF91AF913F
:1006D0009F918F917F916F915F914F913F912F915A
:1006E0000F900FBE0F901F9018951F920F920FB68C
:1006F0000F9211242F938F939F93EF93FF93E09189
:100700008F01F09190018081E0919501F091960127
:1007100082FD12C09081809198018F5F8F7320912C
:100720009901821751F0E0919801F0E0E158FE4FF5
:10073000958F8093980101C08081FF91EF919F91E7
:100740008F912F910F900FBE0F901F901895789456
:1007500084B5826084BD84B5816084BD85B58260C6
:1007600085BD85B5816085BD80916E008160809377
:100770006E001092810080918100826080938100E0
:1007800080918100816080938100809180008160F0
:10079000809380008091B10084608093B10080914B
:1007A000B00081608093B00080917A008460809373
:1007B0007A0080917A00826080937A0080917A003A
:1007C000816080937A0080917A00806880937A00BB
:1007D0001092C10061E08DE00E94DE0061E089E0DE
:1007E0000E940E0161E08AE00E940E0161E085E056
:1007F0000E940E0161E08DE00E940E0162E082E045
:100800000E940E0162E084E00E940E0162E086E038
:100810000E940E0162E087E00E940E0162E088E023
:100820000E940E0162E083E00E940E01E0918F01C0
:10083000F091900182E08083E0918B01F0918C0136
:100840001082E0918D01F0918E0187E680831092F5
:100850009701E0919301F091940186E08083E0910B
:100860009101F0919201808180618083E0919101FA
:10087000F0919201808188608083E0919101F091F4
:100880009201808180688083E0919101F0919201D2
:1008900080818F7D808383E291E00E94550280E217
:1008A00091E00E94550261E085E00E94DE008AEA44
:1008B00092E0909303018093020180916900837F0D
:1008C000886080936900E99A8091680182608093D2
:1008D00068018DE291E00E9455026091690170917A
:1008E0006A0180916B0190916C014AE00E9467025D
:1008F0008FE391E00E945502609171017091720145
:1009000080917301909174014AE00E94670283E52F
:1009100091E00E94550260916D0170916E0180918D
:100920006F01909170014AE00E94670282E00E948C
:10093000B500892B09F473C084E00E94B500892BAF
:1009400009F46DC086E00E94B500892B09F467C0E8
:1009500087E00E94B500892B09F461C088E00E94FD
:10096000B500892B09F45BC08091680184FF09C040
:1009700061E085E00E94DE00809168018F7E8093B7
:1009800068012FB7F89480917B0190917C01A09130
:100990007D01B0917E012FBF803B9F4FA105B10526
:1009A00020F060E08DE00E94DE002FB7F894809187
:1009B0007B0190917C01A0917D01B0917E012FBFC0
:1009C0004091690150916A0160916B0170916C01D5
:1009D0000091690110916A0120916B0130916C01C5
:1009E000800F911FA21FB31F841B950BA60BB70B83
:1009F0008093690190936A01A0936B01B0936C019D
:100A00008091680184FF08C080917101909172010A
:100A1000A0917301B09174010E944B025ACF809152
:100A2000680184FDAECF60E085E00E94DE00809129
:100A300068018061A4CFEFE7F1E01382128288EEB3
:100A400093E0A0E0B0E084839583A683B78388E039
:100A500091E09183808385EC90E09587848784EC96
:100A600090E09787868780EC90E0918B808B81EC7B
:100A700090E0938B828B82EC90E0958B848B86EC5C
:100A800090E0978B868B118E128E138E148E0895A4
:100A9000A1E21A2EAA1BBB1BFD010DC0AA1FBB1F82
:100AA000EE1FFF1FA217B307E407F50720F0A21BF4
:100AB000B30BE40BF50B661F771F881F991F1A9461
:100AC00069F760957095809590959B01AC01BD018B
:100AD000CF010895EE0FFF1F0590F491E02D0994CA
:0E0AE00081E090E0F8940C947505F894FFCF37
:100AEE004A014A0100000000E2014B017A0129028D
:100AFE00AB0189019D0152494E6752494E47200074
:100B0E000D0A0048616C6C75203A3320000A546956
:100B1E006D6572204C6175667A6569743A20000ABB
:100B2E0054696D657220456E747072656C6C657279
:100B3E003A20000A54696D6572204C6575636874BD
:080B4E0064617565723A200034
:00000001FF
