:100000000C94DF000C94D6040C94AF040C940701FC
:100010000C9407010C9407010C9407010C94070140
:100020000C9407010C9407010C9407010C94070130
:100030000C9407010C9407010C9407010C94070120
:100040000C9465040C9407010C9423050C94FD0496
:100050000C9407010C9407010C9407010C94070100
:100060000C9407010C94070100407A10F35A00A089
:10007000724E18090010A5D4E80000E87648170071
:1000800000E40B54020000CA9A3B000000E1F505B1
:10009000000080969800000040420F000000A086FB
:1000A00001000000102700000000E803000000002D
:1000B0006400000000000A000000000001000000D1
:1000C00000002C76D888DC674F0823DFC1DFAE59EB
:1000D000E1B1B796E5E3E453C63AE651997696E87E
:1000E000E6C28426EB898C9B62ED407C6FFCEFBC02
:1000F0009C9F40F2BAA56FA5F490055A2AF75C932D
:100100006B6CF9676DC11BFCE0E40D47FEF520E662
:10011000B500D0ED902E0300943577050080841E45
:10012000080000204E0A000000C80C333333330FA0
:10013000986E12831141EF8D2114893BE65516CF3D
:10014000FEE6DB18D1844B381BF77C1D901DA4BB49
:10015000E424203284725E228100C9F124ECA1E5FE
:100160003D2700000000240027002A0000000000B6
:10017000250028002B000000000023002600290095
:10018000040404040404040402020202020203033D
:100190000303030301020408102040800102040845
:1001A00010200102040810200000000800020100D5
:1001B00000030407000000000000000055051124A2
:1001C0001FBECFEFD8E0DEBFCDBF22E0A0E6B1E09A
:1001D00001C01D92AF31B207E1F711E0A0E0B1E03C
:1001E000ECEFFCE102C005900D92A036B107D9F703
:1001F00010E0CFEDD0E004C02197FE010E946A0C10
:10020000CE3DD107C9F70E949A050C947C0E0C9440
:100210000000833081F028F4813099F08230A1F021
:1002200008958730A9F08830B9F08430D1F48091F6
:1002300080008F7D03C0809180008F778093800045
:10024000089584B58F7702C084B58F7D84BD0895ED
:100250008091B0008F7703C08091B0008F7D809334
:10026000B0000895CF93DF93282F30E0F901E855CF
:10027000FE4F8491F901EC56FE4FD491F901E058FC
:10028000FE4FC491CC2391F081110E940901EC2F03
:10029000F0E0EE0FFF1FEA58FE4FA591B491EC91EC
:1002A000ED2381E090E021F480E002C080E090E066
:1002B000DF91CF9108951F93CF93DF93282F30E0E4
:1002C000F901E855FE4F8491F901EC56FE4FD491A7
:1002D000F901E058FE4FC491CC23C9F0162F8111CB
:1002E0000E940901EC2FF0E0EE0FFF1FE459FE4FD2
:1002F000A591B4918FB7F894111105C09C91ED2F81
:10030000E095E92302C0EC91ED2BEC938FBFDF91D8
:10031000CF911F910895CF93DF9390E0FC01EC56AD
:10032000FE4F2491FC01E058FE4F8491882361F137
:1003300090E0880F991FFC01EE59FE4FC591D491B2
:10034000FC01E459FE4FA591B491611109C09FB71A
:10035000F8948881209582238883EC912E230BC00A
:10036000623061F49FB7F8943881822F809583239F
:100370008883EC912E2B2C939FBF06C08FB7F894E7
:10038000E8812E2B28838FBFDF91CF9108950895A8
:10039000CF92DF92EF92FF920F931F93CF93DF9351
:1003A0006C017A018B01C0E0D0E0CE15DF0589F049
:1003B000D8016D918D01D601ED91FC910190F081F4
:1003C000E02DC6010995892B11F47E0102C021960A
:1003D000ECCFC701DF91CF911F910F91FF90EF906C
:1003E000DF90CF900895089580E090E00895FC019B
:1003F000538D448D252F30E0842F90E0821B930B8A
:10040000541710F0CF96089501970895FC01918D2F
:10041000828D981761F0828DDF01A80FB11D5D9666
:100420008C91928D9F5F9F73928F90E008958FEFD4
:100430009FEF0895FC01918D828D981731F0828D88
:10044000E80FF11D858D90E008958FEF9FEF0895DF
:10045000FC01918D228D892F90E0805C9F4F821B43
:1004600091098F73992708958EE691E00E942802E2
:1004700021E0892B09F420E0822F0895FC01848D6E
:10048000DF01A80FB11DA35ABF4F2C91848D90E0BE
:1004900001968F739927848FA689B7892C93A08999
:1004A000B1898C9180648C93938D848D981306C050
:1004B0000288F389E02D80818F7D80830895EF92FB
:1004C000FF920F931F93CF93DF93EC0181E0888F0E
:1004D0009B8D8C8D981305C0E889F989808185FDF5
:1004E00024C0F62E0B8D10E00F5F1F4F0F731127E6
:1004F000E02E8C8DE8120CC00FB607FCFACFE8890D
:10050000F989808185FFF5CFCE010E943E02F1CFAF
:100510008B8DFE01E80FF11DE35AFF4FF0820B8F28
:10052000EA89FB898081806207C0EE89FF89608348
:10053000E889F98980818064808381E090E0DF919F
:10054000CF911F910F91FF90EF900895CF93DF937C
:10055000EC01888D8823C9F0EA89FB89808185FDBB
:1005600005C0A889B9898C9186FD0FC00FB607FC1C
:10057000F5CF808185FFF2CFA889B9898C9185FF5D
:10058000EDCFCE010E943E02E7CFDF91CF910895DB
:1005900080E090E0892B29F00E94340281110C94B4
:1005A000000008950F931F93FC012FB7F8948091DA
:1005B0006A0190916B01A0916C01B0916D012FBF08
:1005C0004481558166817781411551056105710529
:1005D00029F480839183A283B38315C000811181A4
:1005E00022813381801B910BA20BB30B84179507DB
:1005F000A607B70750F0400F511F621F731F4083BB
:1006000051836283738381E001C080E01F910F9169
:100610000895CF93DF93FC014481558160817181FE
:100620008EE691E00E94C801EC0142E050E06CE1EE
:1006300071E08EE691E00E94C8018C0F9D1FDF9152
:10064000CF9108950E94670E0F931F93CF93DF936E
:10065000EC0188819981009729F02A813B81261736
:10066000370788F48B016F5F7F4F0E949D0D0097C5
:1006700061F0998388831B830A832C813D81232B1E
:1006800011F4FC01108281E001C080E0DF91CF9184
:100690001F910F910895EF92FF920F931F93CF93A5
:1006A000DF93FC01248135816115710511F480E02F
:1006B00019C041155105A9F07B01EC018A01020F17
:1006C000131FB8010E942403882389F328813981EC
:1006D0008C819D81B701820F931F0E94750E1D832F
:1006E0000C8381E0DF91CF911F910F91FF90EF90EC
:1006F0000895CF93DF93EC0188819981009711F0E1
:100700000E94050D198218821D821C821B821A828A
:10071000DF91CF910895CF93DF93EC0161157105BF
:1007200061F0FB0101900020E9F73197AF01461B12
:10073000570B0E944B03811103C0CE010E94790325
:10074000CE01DF91CF910895CF93DF93EC01FB01B0
:1007500044815581608171810E944B03811103C0E6
:10076000CE010E947903CE01DF91CF910895EF92DF
:10077000FF920F931F93CF93DF93EC01198218829E
:100780001B821A821D821C826115710521F18B0169
:10079000FB0101900020E9F731977F01E61AF70A83
:1007A000B7010E942403811109C0CE01DF91CF91CE
:1007B0001F910F91FF90EF900C947903FD82EC82D2
:1007C000B80188819981DF91CF911F910F91FF909E
:1007D000EF900C94750EDF91CF911F910F91FF90C8
:1007E000EF900895EF92FF920F931F93CF93DF93B3
:1007F0008C017B016115710569F0FB0101900020FE
:10080000E9F73197EF01C61BD70BBE010E94240305
:10081000811104C0C8010E94790308C0F801D58382
:10082000C483B701808191810E94750EC801DF9158
:10083000CF911F910F91FF90EF900895FC0180815F
:1008400091810C94050D0F931F93CF93DF93CDB738
:10085000DEB729970FB6F894DEBF0FBECDBF8C016F
:10086000862FF8011182108213821282158214825F
:1008700050E0BE016F5F7F4F90E00E947B08BE0199
:100880006F5F7F4FC8010E94F20329960FB6F8945C
:10089000DEBF0FBECDBFDF91CF911F910F910895A5
:1008A0008091640184608093640149E050E06FE1CD
:1008B00071E08EE691E00E94C80142E050E06CE1F8
:1008C00071E08EE691E00C94C8011F920F920FB672
:1008D0000F9211242F933F938F939F93AF93BF93C6
:1008E00080916A0190916B01A0916C01B0916D01B2
:1008F0003091690123E0230F2D3720F40196A11DCB
:10090000B11D05C026E8230F0296A11DB11D20933D
:10091000690180936A0190936B01A0936C01B0937D
:100920006D018091650190916601A0916701B09180
:1009300068010196A11DB11D809365019093660128
:10094000A0936701B0936801BF91AF919F918F9180
:100950003F912F910F900FBE0F901F9018951F92EF
:100960000F920FB60F9211242F933F934F935F93E3
:100970006F937F938F939F93AF93BF93EF93FF9367
:10098000E0910201F09103010995FF91EF91BF9170
:10099000AF919F918F917F916F915F914F913F9117
:1009A0002F910F900FBE0F901F9018951F920F92CE
:1009B0000FB60F9211242F933F934F935F936F9332
:1009C0007F938F939F93AF93BF93EF93FF93E091A8
:1009D0000001F09101010995FF91EF91BF91AF9155
:1009E0009F918F917F916F915F914F913F912F9147
:1009F0000F900FBE0F901F9018951F920F920FB679
:100A00000F9211242F933F934F935F936F937F9394
:100A10008F939F93AF93BF93EF93FF938EE691E0F5
:100A20000E943E02FF91EF91BF91AF919F918F91F4
:100A30007F916F915F914F913F912F910F900FBEDA
:100A40000F901F9018951F920F920FB60F921124BE
:100A50002F938F939F93EF93FF93E0917E01F091FB
:100A60007F018081E0918401F091850182FD12C0B7
:100A70009081809187018F5F8F7320918801821709
:100A800051F0E0918701F0E0E259FE4F958F80939D
:100A9000870101C08081FF91EF919F918F912F91EC
:100AA0000F900FBE0F901F901895EEE6F1E01382A5
:100AB000128288EE93E0A0E0B0E084839583A68361
:100AC000B7838EE091E09183808385EC90E09587F9
:100AD000848784EC90E09787868780EC90E0918B08
:100AE000808B81EC90E0938B828B82EC90E0958BF5
:100AF000848B86EC90E0978B868B118E128E138EF2
:100B0000148E81E090E0A0E0B0E080931702909313
:100B10001802A0931902B0931A0280E197E2A0E0B4
:100B2000B0E080930F0290931002A0931102B09353
:100B300012020895CF93DF93CDB7DEB7A7970FB614
:100B4000F894DEBF0FBECDBF789484B5826084BDBB
:100B500084B5816084BD85B5826085BD85B58160C1
:100B600085BD80916E00816080936E00109281003F
:100B700080918100826080938100809181008160FA
:100B800080938100809180008160809380008091BB
:100B9000B10084608093B1008091B0008160809347
:100BA000B00080917A00846080937A0080917A000E
:100BB000826080937A0080917A00816080937A00CD
:100BC00080917A00806880937A001092C10061E081
:100BD00089E00E948B0161E08AE00E948B0161E064
:100BE00085E00E948B0162E082E00E948B0162E05E
:100BF00084E00E948B0162E086E00E948B0162E04B
:100C000087E00E948B0162E088E00E948B0162E035
:100C100083E00E948B01E0917E01F0917F0182E0F0
:100C20008083E0917A01F0917B011082E0917C0158
:100C3000F0917D0180E1808310928601E091820134
:100C4000F091830186E08083E0918001F091810141
:100C5000808180618083E0918001F09181018081B9
:100C600088608083E0918001F091810180818068BB
:100C70008083E0918001F091810180818F7D80836C
:100C800030E5A32E34E0B32E42EB842E41E0942EC7
:100C90008091640180FD46C061E085E00E945B01B7
:100CA000B0920301A092020180916900837F886065
:100CB00080936900E99A8091640181608093640166
:100CC0006091600170916101809162019091630176
:100CD0001BA21AA21DA21CA21FA21EA28E010F5FA0
:100CE0001F4F22E044E00E945B08BC01CE018296C7
:100CF0000E94F20369E271E0C8010E94B703BE01DD
:100D00006E5D7F4FC8010E94A40362E371E00E9400
:100D10008B030E940903C8010E941E04CE01829623
:100D20000E941E0482E00E943201892B09F468C1EE
:100D300084E00E943201892B09F462C186E00E949E
:100D40003201892B09F45CC187E00E943201892BB2
:100D500009F456C188E00E943201892B09F450C180
:100D60008091640183FF09C061E085E00E945B011E
:100D700080916401877F809364018091640181FD8B
:100D800004C08091640182FD47C18091640181FFAC
:100D90005CC08091640183FF07C0C12CD12C20E886
:100DA000E22E2FE3F22E0DC083E192E00E94D202E8
:100DB000813099F79DECC92E9CECD92EED2C9DE34A
:100DC000F92E8BE092E00E94D202813009F043C0FC
:100DD000609164014AE0CE0101960E9423046AE317
:100DE00071E0CE0182960E94B703BE016F5F7F4F14
:100DF000CE0182960E94A40362E371E00E948B03FD
:100E00000E940903CE0182960E941E04CE01019623
:100E10000E941E04809164018D7F80936401809103
:100E200064018B7F80936401809164018F7D809346
:100E30006401B0920301A092020180916900837F56
:100E4000886080936900E99A06C0C12CD12C80E8A3
:100E5000E82E8FE3F82E83E192E00E94D2028130E7
:100E600009F099C08091640184FF43C04090600103
:100E7000509061016090620170906301A301920142
:100E8000C701B6010E94650C87FD24C01092600165
:100E900010926101109262011092630180916401CD
:100EA0008F7E80936401609164014AE0CE010196D7
:100EB0000E94230465E471E0CE0182960E94B7038C
:100EC000BE016F5F7F4FCE0182960E94A4036DE446
:100ED00071E04CC0A7019601C301B2010E94C20B90
:100EE000609360017093610180936201909363014C
:100EF00052C0209160013091610140916201509196
:100F00006301C701B6010E94C30B6B017C0120E0A5
:100F100030E04FE753E40E94650C87FD34C080E069
:100F200090E0AFE7B3E48093600190936101A093F8
:100F30006201B093630180916401806180936401D8
:100F4000609164014AE0CE0101960E94230464E5A9
:100F500071E0CE0182960E94B703BE016F5F7F4FA2
:100F6000CE0182960E94A40369E571E00E948B0382
:100F70000E940903CE0182960E941E04CE010196B2
:100F80000E941E0408C0C0926001D0926101E092EC
:100F90006201F09263018091640183FD06C080913B
:100FA000640181FD02C060E018C060916001709131
:100FB000610180916201909163010E942F0C6B018D
:100FC0007C018B0161E08AE00E948B01C114D10495
:100FD00051F30F3F110529F461E08AE00E945B01A3
:100FE0000CC0F4018491833009F446C0A8F5813027
:100FF00061F584B5806884BDC7BC0E94C80248CE34
:101000008091640183FDB9CE60E085E00E945B01C0
:10101000809164018860AFCE80916401826080938A
:1010200064012FB7F89480916A0190916B01A091AF
:101030006C01B0916D012FBF80930B0290930C0255
:10104000A0930D02B0930E02A0CE823079F584B544
:10105000806284BDC8BCD1CF8730C1F08830F1F048
:10106000843021F580918000806280938000D0924E
:101070008B00C0928A00C1CF8091800080688093ED
:101080008000D0928900C0928800B7CF8091B000D4
:1010900080688093B000C092B300AFCF8091B00061
:1010A00080628093B000C092B400A7CF00381105D1
:1010B0000CF092CF78CFEF920F931F93CF93DF93E3
:1010C000E80147FD02C034E001C034E1E42F440FE1
:1010D000FF0BF7FF03C0F195E195F109E32E022F15
:1010E0002E2FAE010E94A008CE01DF91CF911F915B
:1010F0000F91EF9008954532510520F4423010F0E1
:101100000C948608FB011082CB010895BB27FB01DC
:101110005527AA27880F991FAA1FA41710F0A41BF0
:1011200083955051B9F7A05DAA3308F0A95DA1934A
:10113000009779F7B111B1931192CB010C94060B82
:101140004F925F926F927F929F92AF92BF92CF9297
:10115000DF92EF92FF920F931F93CF93DF93CDB760
:10116000DEB729970FB6F894DEBF0FBECDBF6A0178
:10117000122FB02E2BE3201720F0FF24F394F00E53
:1011800002C0BCE3FB2E0F2D27E0AE014F5F5F4F87
:101190000E942E0AAC018981982F9970913031F00C
:1011A000E1FC06C0E0FE06C090E205C09DE203C07F
:1011B0009BE201C090E0EE2DE07183FF3CC09111F5
:1011C00002C083E001C084E0811718F4212F281B9E
:1011D00001C020E0E1110BC0F601822F30E288232C
:1011E00019F031938150FBCFC20ED11C20E099231E
:1011F00029F0D6019C93F60131966F01C601039642
:10120000E2FE0AC03EE4D6013C9341E411964C93C1
:10121000119712963C9306C03EE6F601308341E6F4
:1012200041833283FC01322F40E2332309F442C070
:1012300041933150FACF82FF44C0911102C083E044
:1012400001C084E0811718F4212F281B01C020E081
:10125000E1110BC0F601822F30E2882319F031939F
:101260008150FBCFC20ED11C20E0992329F0D6017A
:101270009C93F60131966F01C6010396E2FE0BC006
:1012800039E4D6013C933EE411963C93119736E441
:1012900012963C9307C039E6F60130833EE631836F
:1012A00036E63283FC01322F40E2332319F04193BA
:1012B0003150FBCFFC01E20FF11D10828EEF9FEF4A
:1012C000B7C0F1E0911101C0F0E06F2F70E014168B
:1012D000150624F49A012F5F3F4F02C021E030E051
:1012E000260F371FBB2029F06B2D70E06F5F7F4FFB
:1012F00002C060E070E0260F371F612F70E02617F4
:1013000037071CF4121B212F01C020E03E2D38713D
:1013100059F4D601322F60E2332319F06D93315026
:10132000FBCFC20ED11C20E0FF2331F0D6019C93ED
:10133000B6016F5F7F4F6B01E1110BC0F601922F79
:1013400030E3992319F031939150FBCFC20ED11C99
:1013500020E09F2D940F3A81782F7071A72E84FF83
:1013600003C0313309F49150191624F4993018F060
:1013700098E001C091E0E42F852F57FF02C0E0E024
:1013800080E06E2F782FE0E0F0E0AEE29A2E3A0196
:10139000691A71082A01461A570A0B2D10E0119597
:1013A000019511096F3F8FEF780729F4D6019C92C0
:1013B000C60101966C014617570784F0661677063A
:1013C0006CF47F01E40CF51CA1E0B0E0AC0FBD1F94
:1013D000EA0EFB1ED7011196BC9002C090E3B92E15
:1013E000615071093196C60101967C016017710741
:1013F00024F0D601BC926C01D5CF6417750741F477
:10140000363320F4353321F4A11002C081E3B82E25
:10141000F601B082F701822F90E2882319F09193B0
:101420008150FBCFF701E20FF11D108280E090E0C8
:1014300029960FB6F894DEBF0FBECDBFDF91CF91D6
:101440001F910F91FF90EF90DF90CF90BF90AF90E2
:101450009F907F906F905F904F900895283008F094
:1014600027E03327DA01990F311D87FD916000963F
:101470006105710539F432602E5F3D9330E32A95A2
:10148000E1F708959F3F30F080387105610509F05C
:101490003C5F3C5F3D93913008F08068911DDF9385
:1014A000CF931F930F93FF92EF92192F987F9695EA
:1014B000E92F96959695E90FFF27EE53FF4F992751
:1014C0003327EE24FF24A701E70105900894079431
:1014D00028F4360FE71EF81E491F511D660F771FAF
:1014E000881F991F0694A1F70590079428F4E70E2A
:1014F000F81E491F561FC11D770F881F991F661FB1
:101500000694A1F70590079428F4F80E491F561F7A
:10151000C71FD11D880F991F661F771F0694A1F75B
:101520000590079420F4490F561FC71FD81F990F25
:10153000661F771F881F0694A9F78491109517706E
:1015400041F0D695C79557954795F794E7941A9526
:10155000C1F7E8E6F0E06894159015913591659132
:10156000959105907FE27395E118F10A430B560BB4
:10157000C90BD009C0F7E10CF11E431F561FC91F4C
:10158000D01D7EF4703311F48A95E6CFE8940150B3
:1015900030F0080F0AF40027021708F4202F2395D3
:1015A000022F7A3328F079E37D932A95E9F710C06A
:1015B0007D932A9589F606949795679537951795A3
:1015C0001794E118F10A430B560BC90BD00998F098
:1015D00023957E9173957A3308F070E37C93201302
:1015E000B8F77E9170617D9330F0839571E37D93C0
:1015F00070E32A95E1F71124EF90FF900F911F916E
:10160000CF91DF91992787FD90950895DC01FC012A
:10161000672F71917723E1F7329704C07C916D9326
:1016200070836291AE17BF07C8F30895990F000841
:10163000550FAA0BE0E8FEEF16161706E807F907A4
:10164000C0F012161306E407F50798F0621B730B3F
:10165000840B950B39F40A2661F0232B242B252BC0
:1016600021F408950A2609F4A140A6958FEF811D63
:10167000811D089597F99F6780E870E060E0089504
:101680009FEF80EC089500240A941616170618069A
:101690000906089500240A94121613061406050676
:1016A0000895092E0394000C11F4882352F0BB0F07
:1016B00040F4BF2B11F460FF04C06F5F7F4F8F4F6A
:1016C0009F4F089557FD9058440F551F59F05F3FA5
:1016D00071F04795880F97FB991F61F09F3F79F054
:1016E00087950895121613061406551FF2CF4695D6
:1016F000F1DF08C0161617061806991FF1CF869558
:101700007105610508940895E894BB27662777273B
:10171000CB0197F908952F923F924F925F926F926B
:101720007F928F929F92AF92BF92CF92DF92EF9271
:10173000FF920F931F93CF93DF93CDB7DEB7CA1BF2
:10174000DB0B0FB6F894DEBF0FBECDBF09942A881D
:10175000398848885F846E847D848C849B84AA84C5
:10176000B984C884DF80EE80FD800C811B81AA8152
:10177000B981CE0FD11D0FB6F894DEBF0FBECDBF1D
:10178000ED0108955058BB27AA270E94DA0B0C944C
:10179000510B0E94430B38F00E944A0B20F039F4A1
:1017A0009F3F19F426F40C94400B0EF4E095E7FBF0
:1017B0000C943A0BE92F0E94620B58F3BA17620798
:1017C00073078407950720F079F4A6F50C94840B31
:1017D0000EF4E0950B2EBA2FA02D0B01B90190014C
:1017E0000C01CA01A0011124FF27591B99F0593F90
:1017F00050F4503E68F11A16F040A22F232F342FD8
:101800004427585FF3CF469537952795A795F04025
:101810005395C9F77EF41F16BA0B620B730B840B3A
:10182000BAF09150A1F0FF0FBB1F661F771F881FF2
:10183000C2F70EC0BA0F621F731F841F48F487954A
:1018400077956795B795F7959E3F08F0B0CF93953C
:10185000880F08F09927EE0F9795879508950E94B5
:10186000360C6894B1110C94850B08950E946A0B94
:1018700088F09F5798F0B92F9927B751B0F0E1F051
:10188000660F771F881F991F1AF0BA95C9F714C001
:10189000B13091F00E94840BB1E008950C94840B58
:1018A000672F782F8827B85F39F0B93FCCF386953A
:1018B00077956795B395D9F73EF490958095709597
:1018C00061957F4F8F4F9F4F08950E94160B08F42C
:1018D0008FEF0895EE0FFF1F0590F491E02D09940E
:1018E000CF93DF938230910510F482E090E0E09195
:1018F0001D02F0911E0220E030E0C0E0D0E0309701
:1019000011F14081518148175907C0F04817590714
:1019100061F482819381209719F09B838A832BC085
:1019200090931E0280931D0226C02115310519F0E7
:101930004217530718F49A01BE01DF01EF0102803C
:10194000F381E02DDCCF2115310509F1281B390B7E
:101950002430310590F412968D919C911397611566
:10196000710521F0FB019383828304C090931E02D2
:1019700080931D02FD01329644C0FD01E20FF31F6A
:1019800081939193225031092D933C933AC0209139
:101990001B0230911C02232B41F42091060130914F
:1019A000070130931C0220931B0220910401309107
:1019B00005012115310541F42DB73EB740910801CD
:1019C00050910901241B350BE0911B02F0911C0280
:1019D000E217F307A0F42E1B3F0B2817390778F006
:1019E000AC014E5F5F4F2417350748F04E0F5F1F65
:1019F00050931C0240931B028193919302C0E0E03C
:101A0000F0E0CF01DF91CF9108950F931F93CF9313
:101A1000DF93009709F48CC0FC0132971382128285
:101A200000911D0210911E020115110581F4208103
:101A30003181820F931F20911B0230911C022817C5
:101A4000390779F5F0931C02E0931B0271C0D801AD
:101A500040E050E0AE17BF0750F412962D913C9134
:101A60001397AD012115310509F1D901F3CF9D017E
:101A7000DA013383228360817181860F971F821779
:101A8000930769F4EC0128813981260F371F2E5FF7
:101A90003F4F318320838A819B8193838283452BAF
:101AA00029F4F0931E02E0931D0242C01396FC93AA
:101AB000EE931297ED01499159919E01240F351F24
:101AC000E217F30771F480819181840F951F0296CC
:101AD00011969C938E938281938113969C938E93FF
:101AE0001297E0E0F0E0D80112968D919C91139747
:101AF000009719F0F8018C01F6CF8D919C91980117
:101B00002E5F3F4F820F931F20911B0230911C02CA
:101B10002817390769F4309729F410921E021092A1
:101B20001D0202C01382128210931C0200931B023A
:101B3000DF91CF911F910F910895A0E0B0E0E3EA0B
:101B4000FDE00C948F0BEC01009721F4CB010E9477
:101B5000700CB8C0FC01E60FF71F9C012250310940
:101B6000E217F30708F4ACC0D9010D911C9111974D
:101B700006171707B0F00530110508F49FC0C8011B
:101B800004978617970708F499C002501109061B9D
:101B9000170B019311936D937C93CF010E94050D58
:101BA0008DC05B01A01AB10A4C01800E911EA0915C
:101BB0001D02B0911E0240E050E0E12CF12C109784
:101BC00009F44AC0A815B905D1F56D907C9011971C
:101BD000630182E0C80ED11CCA14DB0480F1A301AA
:101BE0004A195B096A0182E0C80ED11C1296BC90AA
:101BF00012971396AC91B5E0CB16D10440F0B282A7
:101C0000A38351834083D9016D937C930AC00E5FF7
:101C10001F4FC301800F911FF90191838083EB2D2A
:101C2000FA2FE114F10431F0D7011396FC93EE93EF
:101C3000129744C0F0931E02E0931D023FC08D91A5
:101C40009C9111974817590708F4AC017D01129631
:101C50000D90BC91A02DB3CF80911B0290911C02DE
:101C600088159905E1F446175707C8F480910401D7
:101C700090910501009741F48DB79EB740910801FE
:101C800050910901841B950BE817F907C8F4F093EC
:101C90001C02E0931B02F901718360830FC0CB012A
:101CA0000E94700C7C01009759F0A801BE010E94AF
:101CB0006C0ECE010E94050DC70104C0CE0102C00A
:101CC00080E090E0CDB7DEB7EEE00C94AB0B81E0A6
:101CD00090E0F8940C947C0EFB01DC0102C00190B2
:101CE0000D9241505040D8F70895FB01DC0101905E
:0C1CF0000D920020E1F70895F894FFCF5A
:101CFC00C701C70100001F028000000000005F0246
:101D0C00C801F701A602280206021A020D0A0052A7
:101D1C00494E6752494E472000636F756E74657269
:101D2C00200020535441525420004C61737453745E
:101D3C0061746520005A555255434B200020626156
:101D4C00636B2000564F52200020766F72200000EB
:00000001FF
